{
  "_format": "hh-sol-artifact-1",
  "contractName": "GovernorMock",
  "sourceName": "contracts/mocks/GovernorMock.sol",
  "abi": [
    {
      "inputs": [
        {
          "internalType": "contract IVotes",
          "name": "_token",
          "type": "address"
        }
      ],
      "stateMutability": "nonpayable",
      "type": "constructor"
    },
    {
      "inputs": [],
      "name": "Empty",
      "type": "error"
    },
    {
      "anonymous": false,
      "inputs": [
        {
          "indexed": false,
          "internalType": "uint256",
          "name": "proposalId",
          "type": "uint256"
        }
      ],
      "name": "ProposalCanceled",
      "type": "event"
    },
    {
      "anonymous": false,
      "inputs": [
        {
          "indexed": false,
          "internalType": "uint256",
          "name": "proposalId",
          "type": "uint256"
        },
        {
          "indexed": false,
          "internalType": "address",
          "name": "proposer",
          "type": "address"
        },
        {
          "indexed": false,
          "internalType": "address[]",
          "name": "targets",
          "type": "address[]"
        },
        {
          "indexed": false,
          "internalType": "uint256[]",
          "name": "values",
          "type": "uint256[]"
        },
        {
          "indexed": false,
          "internalType": "string[]",
          "name": "signatures",
          "type": "string[]"
        },
        {
          "indexed": false,
          "internalType": "bytes[]",
          "name": "calldatas",
          "type": "bytes[]"
        },
        {
          "indexed": false,
          "internalType": "uint256",
          "name": "startBlock",
          "type": "uint256"
        },
        {
          "indexed": false,
          "internalType": "uint256",
          "name": "endBlock",
          "type": "uint256"
        },
        {
          "indexed": false,
          "internalType": "string",
          "name": "description",
          "type": "string"
        }
      ],
      "name": "ProposalCreated",
      "type": "event"
    },
    {
      "anonymous": false,
      "inputs": [
        {
          "indexed": false,
          "internalType": "uint256",
          "name": "proposalId",
          "type": "uint256"
        }
      ],
      "name": "ProposalExecuted",
      "type": "event"
    },
    {
      "anonymous": false,
      "inputs": [
        {
          "indexed": false,
          "internalType": "uint256",
          "name": "oldQuorumNumerator",
          "type": "uint256"
        },
        {
          "indexed": false,
          "internalType": "uint256",
          "name": "newQuorumNumerator",
          "type": "uint256"
        }
      ],
      "name": "QuorumNumeratorUpdated",
      "type": "event"
    },
    {
      "anonymous": false,
      "inputs": [
        {
          "indexed": true,
          "internalType": "address",
          "name": "voter",
          "type": "address"
        },
        {
          "indexed": false,
          "internalType": "uint256",
          "name": "proposalId",
          "type": "uint256"
        },
        {
          "indexed": false,
          "internalType": "uint8",
          "name": "support",
          "type": "uint8"
        },
        {
          "indexed": false,
          "internalType": "uint256",
          "name": "weight",
          "type": "uint256"
        },
        {
          "indexed": false,
          "internalType": "string",
          "name": "reason",
          "type": "string"
        }
      ],
      "name": "VoteCast",
      "type": "event"
    },
    {
      "anonymous": false,
      "inputs": [
        {
          "indexed": true,
          "internalType": "address",
          "name": "voter",
          "type": "address"
        },
        {
          "indexed": false,
          "internalType": "uint256",
          "name": "proposalId",
          "type": "uint256"
        },
        {
          "indexed": false,
          "internalType": "uint8",
          "name": "support",
          "type": "uint8"
        },
        {
          "indexed": false,
          "internalType": "uint256",
          "name": "weight",
          "type": "uint256"
        },
        {
          "indexed": false,
          "internalType": "string",
          "name": "reason",
          "type": "string"
        },
        {
          "indexed": false,
          "internalType": "bytes",
          "name": "params",
          "type": "bytes"
        }
      ],
      "name": "VoteCastWithParams",
      "type": "event"
    },
    {
      "inputs": [],
      "name": "BALLOT_TYPEHASH",
      "outputs": [
        {
          "internalType": "bytes32",
          "name": "",
          "type": "bytes32"
        }
      ],
      "stateMutability": "view",
      "type": "function"
    },
    {
      "inputs": [],
      "name": "COUNTING_MODE",
      "outputs": [
        {
          "internalType": "string",
          "name": "",
          "type": "string"
        }
      ],
      "stateMutability": "pure",
      "type": "function"
    },
    {
      "inputs": [],
      "name": "EXTENDED_BALLOT_TYPEHASH",
      "outputs": [
        {
          "internalType": "bytes32",
          "name": "",
          "type": "bytes32"
        }
      ],
      "stateMutability": "view",
      "type": "function"
    },
    {
      "inputs": [
        {
          "internalType": "uint256",
          "name": "proposalId",
          "type": "uint256"
        },
        {
          "internalType": "uint8",
          "name": "support",
          "type": "uint8"
        }
      ],
      "name": "castVote",
      "outputs": [
        {
          "internalType": "uint256",
          "name": "",
          "type": "uint256"
        }
      ],
      "stateMutability": "nonpayable",
      "type": "function"
    },
    {
      "inputs": [
        {
          "internalType": "uint256",
          "name": "proposalId",
          "type": "uint256"
        },
        {
          "internalType": "uint8",
          "name": "support",
          "type": "uint8"
        },
        {
          "internalType": "uint8",
          "name": "v",
          "type": "uint8"
        },
        {
          "internalType": "bytes32",
          "name": "r",
          "type": "bytes32"
        },
        {
          "internalType": "bytes32",
          "name": "s",
          "type": "bytes32"
        }
      ],
      "name": "castVoteBySig",
      "outputs": [
        {
          "internalType": "uint256",
          "name": "",
          "type": "uint256"
        }
      ],
      "stateMutability": "nonpayable",
      "type": "function"
    },
    {
      "inputs": [
        {
          "internalType": "uint256",
          "name": "proposalId",
          "type": "uint256"
        },
        {
          "internalType": "uint8",
          "name": "support",
          "type": "uint8"
        },
        {
          "internalType": "string",
          "name": "reason",
          "type": "string"
        }
      ],
      "name": "castVoteWithReason",
      "outputs": [
        {
          "internalType": "uint256",
          "name": "",
          "type": "uint256"
        }
      ],
      "stateMutability": "nonpayable",
      "type": "function"
    },
    {
      "inputs": [
        {
          "internalType": "uint256",
          "name": "proposalId",
          "type": "uint256"
        },
        {
          "internalType": "uint8",
          "name": "support",
          "type": "uint8"
        },
        {
          "internalType": "string",
          "name": "reason",
          "type": "string"
        },
        {
          "internalType": "bytes",
          "name": "params",
          "type": "bytes"
        }
      ],
      "name": "castVoteWithReasonAndParams",
      "outputs": [
        {
          "internalType": "uint256",
          "name": "",
          "type": "uint256"
        }
      ],
      "stateMutability": "nonpayable",
      "type": "function"
    },
    {
      "inputs": [
        {
          "internalType": "uint256",
          "name": "proposalId",
          "type": "uint256"
        },
        {
          "internalType": "uint8",
          "name": "support",
          "type": "uint8"
        },
        {
          "internalType": "string",
          "name": "reason",
          "type": "string"
        },
        {
          "internalType": "bytes",
          "name": "params",
          "type": "bytes"
        },
        {
          "internalType": "uint8",
          "name": "v",
          "type": "uint8"
        },
        {
          "internalType": "bytes32",
          "name": "r",
          "type": "bytes32"
        },
        {
          "internalType": "bytes32",
          "name": "s",
          "type": "bytes32"
        }
      ],
      "name": "castVoteWithReasonAndParamsBySig",
      "outputs": [
        {
          "internalType": "uint256",
          "name": "",
          "type": "uint256"
        }
      ],
      "stateMutability": "nonpayable",
      "type": "function"
    },
    {
      "inputs": [
        {
          "internalType": "address[]",
          "name": "targets",
          "type": "address[]"
        },
        {
          "internalType": "uint256[]",
          "name": "values",
          "type": "uint256[]"
        },
        {
          "internalType": "bytes[]",
          "name": "calldatas",
          "type": "bytes[]"
        },
        {
          "internalType": "bytes32",
          "name": "descriptionHash",
          "type": "bytes32"
        }
      ],
      "name": "execute",
      "outputs": [
        {
          "internalType": "uint256",
          "name": "",
          "type": "uint256"
        }
      ],
      "stateMutability": "payable",
      "type": "function"
    },
    {
      "inputs": [
        {
          "internalType": "address",
          "name": "account",
          "type": "address"
        },
        {
          "internalType": "uint256",
          "name": "blockNumber",
          "type": "uint256"
        }
      ],
      "name": "getVotes",
      "outputs": [
        {
          "internalType": "uint256",
          "name": "",
          "type": "uint256"
        }
      ],
      "stateMutability": "view",
      "type": "function"
    },
    {
      "inputs": [
        {
          "internalType": "address",
          "name": "account",
          "type": "address"
        },
        {
          "internalType": "uint256",
          "name": "blockNumber",
          "type": "uint256"
        },
        {
          "internalType": "bytes",
          "name": "params",
          "type": "bytes"
        }
      ],
      "name": "getVotesWithParams",
      "outputs": [
        {
          "internalType": "uint256",
          "name": "",
          "type": "uint256"
        }
      ],
      "stateMutability": "view",
      "type": "function"
    },
    {
      "inputs": [
        {
          "internalType": "uint256",
          "name": "proposalId",
          "type": "uint256"
        },
        {
          "internalType": "address",
          "name": "account",
          "type": "address"
        }
      ],
      "name": "hasVoted",
      "outputs": [
        {
          "internalType": "bool",
          "name": "",
          "type": "bool"
        }
      ],
      "stateMutability": "view",
      "type": "function"
    },
    {
      "inputs": [
        {
          "internalType": "address[]",
          "name": "targets",
          "type": "address[]"
        },
        {
          "internalType": "uint256[]",
          "name": "values",
          "type": "uint256[]"
        },
        {
          "internalType": "bytes[]",
          "name": "calldatas",
          "type": "bytes[]"
        },
        {
          "internalType": "bytes32",
          "name": "descriptionHash",
          "type": "bytes32"
        }
      ],
      "name": "hashProposal",
      "outputs": [
        {
          "internalType": "uint256",
          "name": "",
          "type": "uint256"
        }
      ],
      "stateMutability": "pure",
      "type": "function"
    },
    {
      "inputs": [],
      "name": "name",
      "outputs": [
        {
          "internalType": "string",
          "name": "",
          "type": "string"
        }
      ],
      "stateMutability": "view",
      "type": "function"
    },
    {
      "inputs": [
        {
          "internalType": "address",
          "name": "",
          "type": "address"
        },
        {
          "internalType": "address",
          "name": "",
          "type": "address"
        },
        {
          "internalType": "uint256[]",
          "name": "",
          "type": "uint256[]"
        },
        {
          "internalType": "uint256[]",
          "name": "",
          "type": "uint256[]"
        },
        {
          "internalType": "bytes",
          "name": "",
          "type": "bytes"
        }
      ],
      "name": "onERC1155BatchReceived",
      "outputs": [
        {
          "internalType": "bytes4",
          "name": "",
          "type": "bytes4"
        }
      ],
      "stateMutability": "nonpayable",
      "type": "function"
    },
    {
      "inputs": [
        {
          "internalType": "address",
          "name": "",
          "type": "address"
        },
        {
          "internalType": "address",
          "name": "",
          "type": "address"
        },
        {
          "internalType": "uint256",
          "name": "",
          "type": "uint256"
        },
        {
          "internalType": "uint256",
          "name": "",
          "type": "uint256"
        },
        {
          "internalType": "bytes",
          "name": "",
          "type": "bytes"
        }
      ],
      "name": "onERC1155Received",
      "outputs": [
        {
          "internalType": "bytes4",
          "name": "",
          "type": "bytes4"
        }
      ],
      "stateMutability": "nonpayable",
      "type": "function"
    },
    {
      "inputs": [
        {
          "internalType": "address",
          "name": "",
          "type": "address"
        },
        {
          "internalType": "address",
          "name": "",
          "type": "address"
        },
        {
          "internalType": "uint256",
          "name": "",
          "type": "uint256"
        },
        {
          "internalType": "bytes",
          "name": "",
          "type": "bytes"
        }
      ],
      "name": "onERC721Received",
      "outputs": [
        {
          "internalType": "bytes4",
          "name": "",
          "type": "bytes4"
        }
      ],
      "stateMutability": "nonpayable",
      "type": "function"
    },
    {
      "inputs": [
        {
          "internalType": "uint256",
          "name": "proposalId",
          "type": "uint256"
        }
      ],
      "name": "proposalDeadline",
      "outputs": [
        {
          "internalType": "uint256",
          "name": "",
          "type": "uint256"
        }
      ],
      "stateMutability": "view",
      "type": "function"
    },
    {
      "inputs": [
        {
          "internalType": "uint256",
          "name": "proposalId",
          "type": "uint256"
        }
      ],
      "name": "proposalSnapshot",
      "outputs": [
        {
          "internalType": "uint256",
          "name": "",
          "type": "uint256"
        }
      ],
      "stateMutability": "view",
      "type": "function"
    },
    {
      "inputs": [],
      "name": "proposalThreshold",
      "outputs": [
        {
          "internalType": "uint256",
          "name": "",
          "type": "uint256"
        }
      ],
      "stateMutability": "view",
      "type": "function"
    },
    {
      "inputs": [
        {
          "internalType": "uint256",
          "name": "proposalId",
          "type": "uint256"
        }
      ],
      "name": "proposalVotes",
      "outputs": [
        {
          "internalType": "uint256",
          "name": "againstVotes",
          "type": "uint256"
        },
        {
          "internalType": "uint256",
          "name": "forVotes",
          "type": "uint256"
        },
        {
          "internalType": "uint256",
          "name": "abstainVotes",
          "type": "uint256"
        }
      ],
      "stateMutability": "view",
      "type": "function"
    },
    {
      "inputs": [
        {
          "internalType": "address[]",
          "name": "targets",
          "type": "address[]"
        },
        {
          "internalType": "uint256[]",
          "name": "values",
          "type": "uint256[]"
        },
        {
          "internalType": "bytes[]",
          "name": "calldatas",
          "type": "bytes[]"
        },
        {
          "internalType": "string",
          "name": "description",
          "type": "string"
        }
      ],
      "name": "propose",
      "outputs": [
        {
          "internalType": "uint256",
          "name": "",
          "type": "uint256"
        }
      ],
      "stateMutability": "nonpayable",
      "type": "function"
    },
    {
      "inputs": [
        {
          "internalType": "uint256",
          "name": "blockNumber",
          "type": "uint256"
        }
      ],
      "name": "quorum",
      "outputs": [
        {
          "internalType": "uint256",
          "name": "",
          "type": "uint256"
        }
      ],
      "stateMutability": "view",
      "type": "function"
    },
    {
      "inputs": [],
      "name": "quorumDenominator",
      "outputs": [
        {
          "internalType": "uint256",
          "name": "",
          "type": "uint256"
        }
      ],
      "stateMutability": "view",
      "type": "function"
    },
    {
      "inputs": [],
      "name": "quorumNumerator",
      "outputs": [
        {
          "internalType": "uint256",
          "name": "",
          "type": "uint256"
        }
      ],
      "stateMutability": "view",
      "type": "function"
    },
    {
      "inputs": [
        {
          "internalType": "address",
          "name": "target",
          "type": "address"
        },
        {
          "internalType": "uint256",
          "name": "value",
          "type": "uint256"
        },
        {
          "internalType": "bytes",
          "name": "data",
          "type": "bytes"
        }
      ],
      "name": "relay",
      "outputs": [],
      "stateMutability": "nonpayable",
      "type": "function"
    },
    {
      "inputs": [
        {
          "internalType": "uint256",
          "name": "proposalId",
          "type": "uint256"
        }
      ],
      "name": "state",
      "outputs": [
        {
          "internalType": "enum IGovernor.ProposalState",
          "name": "",
          "type": "uint8"
        }
      ],
      "stateMutability": "view",
      "type": "function"
    },
    {
      "inputs": [
        {
          "internalType": "bytes4",
          "name": "interfaceId",
          "type": "bytes4"
        }
      ],
      "name": "supportsInterface",
      "outputs": [
        {
          "internalType": "bool",
          "name": "",
          "type": "bool"
        }
      ],
      "stateMutability": "view",
      "type": "function"
    },
    {
      "inputs": [],
      "name": "token",
      "outputs": [
        {
          "internalType": "contract IVotes",
          "name": "",
          "type": "address"
        }
      ],
      "stateMutability": "view",
      "type": "function"
    },
    {
      "inputs": [
        {
          "internalType": "uint256",
          "name": "newQuorumNumerator",
          "type": "uint256"
        }
      ],
      "name": "updateQuorumNumerator",
      "outputs": [],
      "stateMutability": "nonpayable",
      "type": "function"
    },
    {
      "inputs": [],
      "name": "version",
      "outputs": [
        {
          "internalType": "string",
          "name": "",
          "type": "string"
        }
      ],
      "stateMutability": "view",
      "type": "function"
    },
    {
      "inputs": [],
      "name": "votingDelay",
      "outputs": [
        {
          "internalType": "uint256",
          "name": "",
          "type": "uint256"
        }
      ],
      "stateMutability": "pure",
      "type": "function"
    },
    {
      "inputs": [],
      "name": "votingPeriod",
      "outputs": [
        {
          "internalType": "uint256",
          "name": "",
          "type": "uint256"
        }
      ],
      "stateMutability": "pure",
      "type": "function"
    },
    {
      "stateMutability": "payable",
      "type": "receive"
    }
  ],
  "bytecode": "0x6101606040523480156200001257600080fd5b5060405162005aa238038062005aa283398181016040528101906200003891906200038e565b6001816040518060400160405280600c81526020017f476f7665726e6f724d6f636b00000000000000000000000000000000000000008152508062000082620001a360201b60201c565b60008280519060200120905060008280519060200120905060007f8b73c3c69bb8fe3d512ecc4cf759cc79239f7b179b0ffacaa9a75d522b39400f90508260e081815250508161010081815250504660a08181525050620000eb818484620001e060201b60201c565b608081815250503073ffffffffffffffffffffffffffffffffffffffff1660c08173ffffffffffffffffffffffffffffffffffffffff1660601b81525050806101208181525050505050505080600090805190602001906200014f929190620002c7565b50508073ffffffffffffffffffffffffffffffffffffffff166101408173ffffffffffffffffffffffffffffffffffffffff1660601b81525050506200019b816200021c60201b60201c565b505062000621565b60606040518060400160405280600181526020017f3100000000000000000000000000000000000000000000000000000000000000815250905090565b60008383834630604051602001620001fd95949392919062000414565b6040516020818303038152906040528051906020012090509392505050565b6200022c620002be60201b60201c565b81111562000271576040517f08c379a0000000000000000000000000000000000000000000000000000000008152600401620002689062000471565b60405180910390fd5b60006005549050816005819055507f0553476bf02ef2726e8ce5ced78d63e26e602e4a2257b1f559418e24b46339978183604051620002b292919062000493565b60405180910390a15050565b60006064905090565b828054620002d5906200052d565b90600052602060002090601f016020900481019282620002f9576000855562000345565b82601f106200031457805160ff191683800117855562000345565b8280016001018555821562000345579182015b828111156200034457825182559160200191906001019062000327565b5b50905062000354919062000358565b5090565b5b808211156200037357600081600090555060010162000359565b5090565b600081519050620003888162000607565b92915050565b600060208284031215620003a157600080fd5b6000620003b18482850162000377565b91505092915050565b620003c581620004d1565b82525050565b620003d681620004e5565b82525050565b6000620003eb604383620004c0565b9150620003f88262000592565b606082019050919050565b6200040e8162000523565b82525050565b600060a0820190506200042b6000830188620003cb565b6200043a6020830187620003cb565b620004496040830186620003cb565b62000458606083018562000403565b620004676080830184620003ba565b9695505050505050565b600060208201905081810360008301526200048c81620003dc565b9050919050565b6000604082019050620004aa600083018562000403565b620004b9602083018462000403565b9392505050565b600082825260208201905092915050565b6000620004de8262000503565b9050919050565b6000819050919050565b6000620004fc82620004d1565b9050919050565b600073ffffffffffffffffffffffffffffffffffffffff82169050919050565b6000819050919050565b600060028204905060018216806200054657607f821691505b602082108114156200055d576200055c62000563565b5b50919050565b7f4e487b7100000000000000000000000000000000000000000000000000000000600052602260045260246000fd5b7f476f7665726e6f72566f74657351756f72756d4672616374696f6e3a2071756f60008201527f72756d4e756d657261746f72206f7665722071756f72756d44656e6f6d696e6160208201527f746f720000000000000000000000000000000000000000000000000000000000604082015250565b6200061281620004ef565b81146200061e57600080fd5b50565b60805160a05160c05160601c60e05161010051610120516101405160601c6154126200069060003960008181611922015281816121d201526122de0152600061244e015260006124900152600061246f015260006123a4015260006123fa0152600061242301526154126000f3fe6080604052600436106101f25760003560e01c80635f398a141161010d578063c01f9e37116100a0578063deaaa7cc1161006f578063deaaa7cc14610814578063eb9019d41461083f578063f23a6e611461087c578063f8ce560a146108b9578063fc0c546a146108f657610238565b8063c01f9e3714610746578063c28bc2fa14610783578063c59057e4146107ac578063dd4e2ba5146107e957610238565b80639a802a6d116100dc5780639a802a6d14610676578063a7713a70146106b3578063b58131b0146106de578063bc197c811461070957610238565b80635f398a14146105945780637b3c71d3146105d15780637d5e81e21461060e57806397c3d3341461064b57610238565b80632fe3e26111610185578063438596321161015457806343859632146104b0578063544ffc9c146104ed57806354fd4d501461052c578063567813881461055757610238565b80632fe3e261146103e05780633932abb11461040b5780633bccf4fd146104365780633e4f49e61461047357610238565b806306fdde03116101c157806306fdde031461030b578063150b7a02146103365780632656227d146103735780632d63f693146103a357610238565b806301ffc9a71461023d57806302a251a31461027a57806303420181146102a557806306f3f9e6146102e257610238565b36610238573073ffffffffffffffffffffffffffffffffffffffff16610216610921565b73ffffffffffffffffffffffffffffffffffffffff161461023657600080fd5b005b600080fd5b34801561024957600080fd5b50610264600480360381019061025f91906136d2565b610929565b6040516102719190614189565b60405180910390f35b34801561028657600080fd5b5061028f610a8e565b60405161029c9190614594565b60405180910390f35b3480156102b157600080fd5b506102cc60048036038101906102c791906138c9565b610a97565b6040516102d99190614594565b60405180910390f35b3480156102ee57600080fd5b50610309600480360381019061030491906136fb565b610b7c565b005b34801561031757600080fd5b50610320610c78565b60405161032d9190614332565b60405180910390f35b34801561034257600080fd5b5061035d6004803603810190610358919061334b565b610d0a565b60405161036a91906142e1565b60405180910390f35b61038d60048036038101906103889190613564565b610d1e565b60405161039a9190614594565b60405180910390f35b3480156103af57600080fd5b506103ca60048036038101906103c591906136fb565b610f03565b6040516103d79190614594565b60405180910390f35b3480156103ec57600080fd5b506103f5610f71565b60405161040291906141a4565b60405180910390f35b34801561041757600080fd5b50610420610f95565b60405161042d9190614594565b60405180910390f35b34801561044257600080fd5b5061045d6004803603810190610458919061399b565b610f9a565b60405161046a9190614594565b60405180910390f35b34801561047f57600080fd5b5061049a600480360381019061049591906136fb565b611024565b6040516104a79190614317565b60405180910390f35b3480156104bc57600080fd5b506104d760048036038101906104d2919061374d565b611139565b6040516104e49190614189565b60405180910390f35b3480156104f957600080fd5b50610514600480360381019061050f91906136fb565b6111a4565b60405161052393929190614688565b60405180910390f35b34801561053857600080fd5b506105416111dc565b60405161054e9190614332565b60405180910390f35b34801561056357600080fd5b5061057e60048036038101906105799190613789565b611219565b60405161058b9190614594565b60405180910390f35b3480156105a057600080fd5b506105bb60048036038101906105b69190613831565b61124a565b6040516105c89190614594565b60405180910390f35b3480156105dd57600080fd5b506105f860048036038101906105f391906137c5565b6112b4565b6040516106059190614594565b60405180910390f35b34801561061a57600080fd5b506106356004803603810190610630919061360f565b61131c565b6040516106429190614594565b60405180910390f35b34801561065757600080fd5b50610660611649565b60405161066d9190614594565b60405180910390f35b34801561068257600080fd5b5061069d600480360381019061069891906134fd565b611652565b6040516106aa9190614594565b60405180910390f35b3480156106bf57600080fd5b506106c8611668565b6040516106d59190614594565b60405180910390f35b3480156106ea57600080fd5b506106f3611672565b6040516107009190614594565b60405180910390f35b34801561071557600080fd5b50610730600480360381019061072b919061328c565b611677565b60405161073d91906142e1565b60405180910390f35b34801561075257600080fd5b5061076d600480360381019061076891906136fb565b61168c565b60405161077a9190614594565b60405180910390f35b34801561078f57600080fd5b506107aa60048036038101906107a59190613491565b6116fa565b005b3480156107b857600080fd5b506107d360048036038101906107ce9190613564565b611840565b6040516107e09190614594565b60405180910390f35b3480156107f557600080fd5b506107fe61187c565b60405161080b9190614332565b60405180910390f35b34801561082057600080fd5b506108296118b9565b60405161083691906141a4565b60405180910390f35b34801561084b57600080fd5b5061086660048036038101906108619190613455565b6118dd565b6040516108739190614594565b60405180910390f35b34801561088857600080fd5b506108a3600480360381019061089e91906133c6565b6118f9565b6040516108b091906142e1565b60405180910390f35b3480156108c557600080fd5b506108e060048036038101906108db91906136fb565b61190e565b6040516108ed9190614594565b60405180910390f35b34801561090257600080fd5b5061090b611920565b60405161091891906142fc565b60405180910390f35b600030905090565b6000639a802a6d60e01b630342018160e01b635f398a1460e01b7f79dd796f000000000000000000000000000000000000000000000000000000001818187bffffffffffffffffffffffffffffffffffffffffffffffffffffffff1916827bffffffffffffffffffffffffffffffffffffffffffffffffffffffff19161480610a0f57507f79dd796f000000000000000000000000000000000000000000000000000000007bffffffffffffffffffffffffffffffffffffffffffffffffffffffff1916827bffffffffffffffffffffffffffffffffffffffffffffffffffffffff1916145b80610a7757507f4e2312e0000000000000000000000000000000000000000000000000000000007bffffffffffffffffffffffffffffffffffffffffffffffffffffffff1916827bffffffffffffffffffffffffffffffffffffffffffffffffffffffff1916145b80610a875750610a8682611944565b5b9050919050565b60006002905090565b600080610b1a610b127fb3b3f3b703cd84ce352197dcff232b1b5d3cfb2025ce47cf04742d0651f1af888c8c8c8c604051610ad392919061409f565b60405180910390208b80519060200120604051602001610af7959493929190614249565b604051602081830303815290604052805190602001206119ae565b8686866119c8565b9050610b6d8a828b8b8b8080601f016020809104026020016040519081016040528093929190818152602001838380828437600081840152601f19601f820116905080830192505050505050508a6119f3565b91505098975050505050505050565b610b84610921565b73ffffffffffffffffffffffffffffffffffffffff16610ba2611bfc565b73ffffffffffffffffffffffffffffffffffffffff1614610bf8576040517f08c379a0000000000000000000000000000000000000000000000000000000008152600401610bef90614374565b60405180910390fd5b3073ffffffffffffffffffffffffffffffffffffffff16610c17610921565b73ffffffffffffffffffffffffffffffffffffffff1614610c6c576000610c3c611c04565b604051610c4a92919061409f565b604051809103902090505b80610c606002611c11565b14610c6a57610c55565b505b610c7581611ced565b50565b606060008054610c8790614c5a565b80601f0160208091040260200160405190810160405280929190818152602001828054610cb390614c5a565b8015610d005780601f10610cd557610100808354040283529160200191610d00565b820191906000526020600020905b815481529060010190602001808311610ce357829003601f168201915b5050505050905090565b600063150b7a0260e01b9050949350505050565b600080610d2d86868686611840565b90506000610d3a82611024565b905060046007811115610d76577f4e487b7100000000000000000000000000000000000000000000000000000000600052602160045260246000fd5b816007811115610daf577f4e487b7100000000000000000000000000000000000000000000000000000000600052602160045260246000fd5b1480610e2b575060056007811115610df0577f4e487b7100000000000000000000000000000000000000000000000000000000600052602160045260246000fd5b816007811115610e29577f4e487b7100000000000000000000000000000000000000000000000000000000600052602160045260246000fd5b145b610e6a576040517f08c379a0000000000000000000000000000000000000000000000000000000008152600401610e61906144d4565b60405180910390fd5b600180600084815260200190815260200160002060020160006101000a81548160ff0219169083151502179055507f712ae1383f79ac853f8d882153778e0260ef8f03b504e2866e0593e04d2b291f82604051610ec79190614594565b60405180910390a1610edc8288888888611d82565b610ee98288888888611eb2565b610ef68288888888612033565b8192505050949350505050565b6000610f60600160008481526020019081526020016000206000016040518060200160405290816000820160009054906101000a900467ffffffffffffffff1667ffffffffffffffff1667ffffffffffffffff168152505061208e565b67ffffffffffffffff169050919050565b7fb3b3f3b703cd84ce352197dcff232b1b5d3cfb2025ce47cf04742d0651f1af8881565b600090565b600080610ffb610ff37f150214d74d59b7d1e90c73fc22ef3d991dd0a76b046543d4d80ab92d2a50328f8989604051602001610fd893929190614212565b604051602081830303815290604052805190602001206119ae565b8686866119c8565b90506110188782886040518060200160405280600081525061209c565b91505095945050505050565b6000806001600084815260200190815260200160002090508060020160009054906101000a900460ff161561105d576007915050611134565b8060020160019054906101000a900460ff161561107e576002915050611134565b600061108984610f03565b905060008114156110cf576040517f08c379a00000000000000000000000000000000000000000000000000000000081526004016110c6906144f4565b60405180910390fd5b4381106110e157600092505050611134565b60006110ec8561168c565b90504381106111015760019350505050611134565b61110a856120bc565b801561111b575061111a85612103565b5b1561112c5760049350505050611134565b600393505050505b919050565b60006004600084815260200190815260200160002060030160008373ffffffffffffffffffffffffffffffffffffffff1673ffffffffffffffffffffffffffffffffffffffff16815260200190815260200160002060009054906101000a900460ff16905092915050565b600080600080600460008681526020019081526020016000209050806000015481600101548260020154935093509350509193909250565b60606040518060400160405280600181526020017f3100000000000000000000000000000000000000000000000000000000000000815250905090565b600080611224611bfc565b90506112418482856040518060200160405280600081525061209c565b91505092915050565b600080611255611bfc565b90506112a887828888888080601f016020809104026020016040519081016040528093929190818152602001838380828437600081840152601f19601f82011690508083019250505050505050876119f3565b91505095945050505050565b6000806112bf611bfc565b905061131186828787878080601f016020809104026020016040519081016040528093929190818152602001838380828437600081840152601f19601f8201169050808301925050505050505061209c565b915050949350505050565b6000611326611672565b611343611331611bfc565b60014361133e9190614aea565b6118dd565b1015611384576040517f08c379a000000000000000000000000000000000000000000000000000000000815260040161137b90614574565b60405180910390fd5b60006113998686868680519060200120611840565b905084518651146113df576040517f08c379a00000000000000000000000000000000000000000000000000000000081526004016113d6906143d4565b60405180910390fd5b8351865114611423576040517f08c379a000000000000000000000000000000000000000000000000000000000815260040161141a906143d4565b60405180910390fd5b6000865111611467576040517f08c379a000000000000000000000000000000000000000000000000000000000815260040161145e90614474565b60405180910390fd5b60006001600083815260200190815260200160002090506114c7816000016040518060200160405290816000820160009054906101000a900467ffffffffffffffff1667ffffffffffffffff1667ffffffffffffffff168152505061212e565b611506576040517f08c379a00000000000000000000000000000000000000000000000000000000081526004016114fd90614534565b60405180910390fd5b6000611518611513610f95565b612148565b61152143612148565b61152b9190614a21565b9050600061153f61153a610a8e565b612148565b8261154a9190614a21565b9050611562828460000161219f90919063ffffffff16565b611578818460010161219f90919063ffffffff16565b7f7d84a6263ae0d98d3329bd7b46bb4e8d6f98cd35a7adb45c274c8b7fd5ebd5e0846115a2611bfc565b8b8b8d5167ffffffffffffffff8111156115e5577f4e487b7100000000000000000000000000000000000000000000000000000000600052604160045260246000fd5b60405190808252806020026020018201604052801561161857816020015b60608152602001906001900390816116035790505b508c88888e604051611632999897969594939291906145af565b60405180910390a183945050505050949350505050565b60006064905090565b600061165f8484846121ce565b90509392505050565b6000600554905090565b600090565b600063bc197c8160e01b905095945050505050565b60006116e9600160008481526020019081526020016000206001016040518060200160405290816000820160009054906101000a900467ffffffffffffffff1667ffffffffffffffff1667ffffffffffffffff168152505061208e565b67ffffffffffffffff169050919050565b611702610921565b73ffffffffffffffffffffffffffffffffffffffff16611720611bfc565b73ffffffffffffffffffffffffffffffffffffffff1614611776576040517f08c379a000000000000000000000000000000000000000000000000000000000815260040161176d90614374565b60405180910390fd5b3073ffffffffffffffffffffffffffffffffffffffff16611795610921565b73ffffffffffffffffffffffffffffffffffffffff16146117ea5760006117ba611c04565b6040516117c892919061409f565b604051809103902090505b806117de6002611c11565b146117e8576117d3565b505b6118398483838080601f016020809104026020016040519081016040528093929190818152602001838380828437600081840152601f19601f8201169050808301925050505050505085612284565b5050505050565b600084848484604051602001611859949392919061412f565b6040516020818303038152906040528051906020012060001c9050949350505050565b60606040518060400160405280602081526020017f737570706f72743d627261766f2671756f72756d3d666f722c6162737461696e815250905090565b7f150214d74d59b7d1e90c73fc22ef3d991dd0a76b046543d4d80ab92d2a50328f81565b60006118f183836118ec6122b3565b6121ce565b905092915050565b600063f23a6e6160e01b905095945050505050565b6000611919826122ca565b9050919050565b7f000000000000000000000000000000000000000000000000000000000000000081565b60007f01ffc9a7000000000000000000000000000000000000000000000000000000007bffffffffffffffffffffffffffffffffffffffffffffffffffffffff1916827bffffffffffffffffffffffffffffffffffffffffffffffffffffffff1916149050919050565b60006119c16119bb6123a0565b836124ba565b9050919050565b60008060006119d9878787876124ed565b915091506119e6816125fa565b8192505050949350505050565b60008060016000888152602001908152602001600020905060016007811115611a45577f4e487b7100000000000000000000000000000000000000000000000000000000600052602160045260246000fd5b611a4e88611024565b6007811115611a86577f4e487b7100000000000000000000000000000000000000000000000000000000600052602160045260246000fd5b14611ac6576040517f08c379a0000000000000000000000000000000000000000000000000000000008152600401611abd90614454565b60405180910390fd5b6000611b2587611b15846000016040518060200160405290816000820160009054906101000a900467ffffffffffffffff1667ffffffffffffffff1667ffffffffffffffff168152505061208e565b67ffffffffffffffff16866121ce565b9050611b34888888848861294b565b600084511415611b97578673ffffffffffffffffffffffffffffffffffffffff167fb8e138887d0aa13bab447e82de9d5c1777041ecd21ca36ba824ff1e6c07ddda489888489604051611b8a94939291906146bf565b60405180910390a2611bee565b8673ffffffffffffffffffffffffffffffffffffffff167fe2babfbac5889a709b63bb7f598b324e08bc5a4fb9ec647fb3cbc9ec07eb87128988848989604051611be595949392919061470b565b60405180910390a25b809250505095945050505050565b600033905090565b3660008036915091509091565b6000611c1c82612bc4565b15611c53576040517f3db2a12a00000000000000000000000000000000000000000000000000000000815260040160405180910390fd5b60008260000160009054906101000a9004600f0b905082600101600082600f0b600f0b815260200190815260200160002054915082600101600082600f0b600f0b815260200190815260200160002060009055600181018360000160006101000a8154816fffffffffffffffffffffffffffffffff0219169083600f0b6fffffffffffffffffffffffffffffffff16021790555050919050565b611cf5611649565b811115611d37576040517f08c379a0000000000000000000000000000000000000000000000000000000008152600401611d2e90614394565b60405180910390fd5b60006005549050816005819055507f0553476bf02ef2726e8ce5ced78d63e26e602e4a2257b1f559418e24b46339978183604051611d7692919061465f565b60405180910390a15050565b3073ffffffffffffffffffffffffffffffffffffffff16611da1610921565b73ffffffffffffffffffffffffffffffffffffffff1614611eab5760005b8451811015611ea9573073ffffffffffffffffffffffffffffffffffffffff16858281518110611e18577f4e487b7100000000000000000000000000000000000000000000000000000000600052603260045260246000fd5b602002602001015173ffffffffffffffffffffffffffffffffffffffff161415611e9857611e97838281518110611e78577f4e487b7100000000000000000000000000000000000000000000000000000000600052603260045260246000fd5b6020026020010151805190602001206002612bf990919063ffffffff16565b5b80611ea290614cbd565b9050611dbf565b505b5050505050565b600060405180606001604052806027815260200161538d60279139905060005b855181101561202a57600080878381518110611f17577f4e487b7100000000000000000000000000000000000000000000000000000000600052603260045260246000fd5b602002602001015173ffffffffffffffffffffffffffffffffffffffff16878481518110611f6e577f4e487b7100000000000000000000000000000000000000000000000000000000600052603260045260246000fd5b6020026020010151878581518110611faf577f4e487b7100000000000000000000000000000000000000000000000000000000600052603260045260246000fd5b6020026020010151604051611fc491906140b8565b60006040518083038185875af1925050503d8060008114612001576040519150601f19603f3d011682016040523d82523d6000602084013e612006565b606091505b5091509150612016828286612c75565b5050508061202390614cbd565b9050611ed2565b50505050505050565b3073ffffffffffffffffffffffffffffffffffffffff16612052610921565b73ffffffffffffffffffffffffffffffffffffffff1614612087576120776002612bc4565b612086576120856002612cdc565b5b5b5050505050565b600081600001519050919050565b60006120b2858585856120ad6122b3565b6119f3565b9050949350505050565b600080600460008481526020019081526020016000209050806002015481600101546120e891906149cb565b6120f96120f485610f03565b61190e565b1115915050919050565b6000806004600084815260200190815260200160002090508060000154816001015411915050919050565b600080826000015167ffffffffffffffff16149050919050565b600067ffffffffffffffff8016821115612197576040517f08c379a000000000000000000000000000000000000000000000000000000000815260040161218e906144b4565b60405180910390fd5b819050919050565b808260000160006101000a81548167ffffffffffffffff021916908367ffffffffffffffff1602179055505050565b60007f000000000000000000000000000000000000000000000000000000000000000073ffffffffffffffffffffffffffffffffffffffff16633a46b1a885856040518363ffffffff1660e01b815260040161222b929190614106565b60206040518083038186803b15801561224357600080fd5b505afa158015612257573d6000803e3d6000fd5b505050506040513d601f19601f8201168201806040525081019061227b9190613724565b90509392505050565b60606122aa8484846040518060600160405280602981526020016153b460299139612d5d565b90509392505050565b606060405180602001604052806000815250905090565b60006122d4611649565b6122dc611668565b7f000000000000000000000000000000000000000000000000000000000000000073ffffffffffffffffffffffffffffffffffffffff16638e539e8c856040518263ffffffff1660e01b81526004016123359190614594565b60206040518083038186803b15801561234d57600080fd5b505afa158015612361573d6000803e3d6000fd5b505050506040513d601f19601f820116820180604052508101906123859190613724565b61238f9190614a90565b6123999190614a5f565b9050919050565b60007f000000000000000000000000000000000000000000000000000000000000000073ffffffffffffffffffffffffffffffffffffffff163073ffffffffffffffffffffffffffffffffffffffff1614801561241c57507f000000000000000000000000000000000000000000000000000000000000000046145b15612449577f000000000000000000000000000000000000000000000000000000000000000090506124b7565b6124b47f00000000000000000000000000000000000000000000000000000000000000007f00000000000000000000000000000000000000000000000000000000000000007f0000000000000000000000000000000000000000000000000000000000000000612e71565b90505b90565b600082826040516020016124cf9291906140cf565b60405160208183030381529060405280519060200120905092915050565b6000807f7fffffffffffffffffffffffffffffff5d576e7357a4501ddfe92f46681b20a08360001c11156125285760006003915091506125f1565b601b8560ff16141580156125405750601c8560ff1614155b156125525760006004915091506125f1565b600060018787878760405160008152602001604052604051612577949392919061429c565b6020604051602081039080840390855afa158015612599573d6000803e3d6000fd5b505050602060405103519050600073ffffffffffffffffffffffffffffffffffffffff168173ffffffffffffffffffffffffffffffffffffffff1614156125e8576000600192509250506125f1565b80600092509250505b94509492505050565b60006004811115612634577f4e487b7100000000000000000000000000000000000000000000000000000000600052602160045260246000fd5b81600481111561266d577f4e487b7100000000000000000000000000000000000000000000000000000000600052602160045260246000fd5b141561267857612948565b600160048111156126b2577f4e487b7100000000000000000000000000000000000000000000000000000000600052602160045260246000fd5b8160048111156126eb577f4e487b7100000000000000000000000000000000000000000000000000000000600052602160045260246000fd5b141561272c576040517f08c379a000000000000000000000000000000000000000000000000000000000815260040161272390614354565b60405180910390fd5b60026004811115612766577f4e487b7100000000000000000000000000000000000000000000000000000000600052602160045260246000fd5b81600481111561279f577f4e487b7100000000000000000000000000000000000000000000000000000000600052602160045260246000fd5b14156127e0576040517f08c379a00000000000000000000000000000000000000000000000000000000081526004016127d7906143b4565b60405180910390fd5b6003600481111561281a577f4e487b7100000000000000000000000000000000000000000000000000000000600052602160045260246000fd5b816004811115612853577f4e487b7100000000000000000000000000000000000000000000000000000000600052602160045260246000fd5b1415612894576040517f08c379a000000000000000000000000000000000000000000000000000000000815260040161288b906143f4565b60405180910390fd5b6004808111156128cd577f4e487b7100000000000000000000000000000000000000000000000000000000600052602160045260246000fd5b816004811115612906577f4e487b7100000000000000000000000000000000000000000000000000000000600052602160045260246000fd5b1415612947576040517f08c379a000000000000000000000000000000000000000000000000000000000815260040161293e90614494565b60405180910390fd5b5b50565b60006004600087815260200190815260200160002090508060030160008673ffffffffffffffffffffffffffffffffffffffff1673ffffffffffffffffffffffffffffffffffffffff16815260200190815260200160002060009054906101000a900460ff16156129f1576040517f08c379a00000000000000000000000000000000000000000000000000000000081526004016129e890614414565b60405180910390fd5b60018160030160008773ffffffffffffffffffffffffffffffffffffffff1673ffffffffffffffffffffffffffffffffffffffff16815260200190815260200160002060006101000a81548160ff02191690831515021790555060006002811115612a85577f4e487b7100000000000000000000000000000000000000000000000000000000600052602160045260246000fd5b60ff168460ff161415612ab25782816000016000828254612aa691906149cb565b92505081905550612bbc565b60016002811115612aec577f4e487b7100000000000000000000000000000000000000000000000000000000600052602160045260246000fd5b60ff168460ff161415612b195782816001016000828254612b0d91906149cb565b92505081905550612bbb565b600280811115612b52577f4e487b7100000000000000000000000000000000000000000000000000000000600052602160045260246000fd5b60ff168460ff161415612b7f5782816002016000828254612b7391906149cb565b92505081905550612bba565b6040517f08c379a0000000000000000000000000000000000000000000000000000000008152600401612bb190614514565b60405180910390fd5b5b5b505050505050565b60008160000160009054906101000a9004600f0b600f0b8260000160109054906101000a9004600f0b600f0b13159050919050565b60008260000160109054906101000a9004600f0b90508183600101600083600f0b600f0b815260200190815260200160002081905550600181018360000160106101000a8154816fffffffffffffffffffffffffffffffff0219169083600f0b6fffffffffffffffffffffffffffffffff160217905550505050565b60608315612c8557829050612cd5565b600083511115612c985782518084602001fd5b816040517f08c379a0000000000000000000000000000000000000000000000000000000008152600401612ccc9190614332565b60405180910390fd5b9392505050565b60008160000160006101000a8154816fffffffffffffffffffffffffffffffff0219169083600f0b6fffffffffffffffffffffffffffffffff16021790555060008160000160106101000a8154816fffffffffffffffffffffffffffffffff0219169083600f0b6fffffffffffffffffffffffffffffffff16021790555050565b606082471015612da2576040517f08c379a0000000000000000000000000000000000000000000000000000000008152600401612d9990614434565b60405180910390fd5b612dab85612eab565b612dea576040517f08c379a0000000000000000000000000000000000000000000000000000000008152600401612de190614554565b60405180910390fd5b6000808673ffffffffffffffffffffffffffffffffffffffff168587604051612e1391906140b8565b60006040518083038185875af1925050503d8060008114612e50576040519150601f19603f3d011682016040523d82523d6000602084013e612e55565b606091505b5091509150612e65828286612c75565b92505050949350505050565b60008383834630604051602001612e8c9594939291906141bf565b6040516020818303038152906040528051906020012090509392505050565b6000808273ffffffffffffffffffffffffffffffffffffffff163b119050919050565b6000612ee1612edc84614791565b61476c565b90508083825260208201905082856020860282011115612f0057600080fd5b60005b85811015612f305781612f1688826130a8565b845260208401935060208301925050600181019050612f03565b5050509392505050565b6000612f4d612f48846147bd565b61476c565b90508083825260208201905082856020860282011115612f6c57600080fd5b60005b85811015612fb657813567ffffffffffffffff811115612f8e57600080fd5b808601612f9b89826131af565b85526020850194506020840193505050600181019050612f6f565b5050509392505050565b6000612fd3612fce846147e9565b61476c565b90508083825260208201905082856020860282011115612ff257600080fd5b60005b858110156130225781613008888261324d565b845260208401935060208301925050600181019050612ff5565b5050509392505050565b600061303f61303a84614815565b61476c565b90508281526020810184848401111561305757600080fd5b613062848285614c18565b509392505050565b600061307d61307884614846565b61476c565b90508281526020810184848401111561309557600080fd5b6130a0848285614c18565b509392505050565b6000813590506130b781615319565b92915050565b600082601f8301126130ce57600080fd5b81356130de848260208601612ece565b91505092915050565b600082601f8301126130f857600080fd5b8135613108848260208601612f3a565b91505092915050565b600082601f83011261312257600080fd5b8135613132848260208601612fc0565b91505092915050565b60008135905061314a81615330565b92915050565b60008135905061315f81615347565b92915050565b60008083601f84011261317757600080fd5b8235905067ffffffffffffffff81111561319057600080fd5b6020830191508360018202830111156131a857600080fd5b9250929050565b600082601f8301126131c057600080fd5b81356131d084826020860161302c565b91505092915050565b60008083601f8401126131eb57600080fd5b8235905067ffffffffffffffff81111561320457600080fd5b60208301915083600182028301111561321c57600080fd5b9250929050565b600082601f83011261323457600080fd5b813561324484826020860161306a565b91505092915050565b60008135905061325c8161535e565b92915050565b6000815190506132718161535e565b92915050565b60008135905061328681615375565b92915050565b600080600080600060a086880312156132a457600080fd5b60006132b2888289016130a8565b95505060206132c3888289016130a8565b945050604086013567ffffffffffffffff8111156132e057600080fd5b6132ec88828901613111565b935050606086013567ffffffffffffffff81111561330957600080fd5b61331588828901613111565b925050608086013567ffffffffffffffff81111561333257600080fd5b61333e888289016131af565b9150509295509295909350565b6000806000806080858703121561336157600080fd5b600061336f878288016130a8565b9450506020613380878288016130a8565b93505060406133918782880161324d565b925050606085013567ffffffffffffffff8111156133ae57600080fd5b6133ba878288016131af565b91505092959194509250565b600080600080600060a086880312156133de57600080fd5b60006133ec888289016130a8565b95505060206133fd888289016130a8565b945050604061340e8882890161324d565b935050606061341f8882890161324d565b925050608086013567ffffffffffffffff81111561343c57600080fd5b613448888289016131af565b9150509295509295909350565b6000806040838503121561346857600080fd5b6000613476858286016130a8565b92505060206134878582860161324d565b9150509250929050565b600080600080606085870312156134a757600080fd5b60006134b5878288016130a8565b94505060206134c68782880161324d565b935050604085013567ffffffffffffffff8111156134e357600080fd5b6134ef87828801613165565b925092505092959194509250565b60008060006060848603121561351257600080fd5b6000613520868287016130a8565b93505060206135318682870161324d565b925050604084013567ffffffffffffffff81111561354e57600080fd5b61355a868287016131af565b9150509250925092565b6000806000806080858703121561357a57600080fd5b600085013567ffffffffffffffff81111561359457600080fd5b6135a0878288016130bd565b945050602085013567ffffffffffffffff8111156135bd57600080fd5b6135c987828801613111565b935050604085013567ffffffffffffffff8111156135e657600080fd5b6135f2878288016130e7565b92505060606136038782880161313b565b91505092959194509250565b6000806000806080858703121561362557600080fd5b600085013567ffffffffffffffff81111561363f57600080fd5b61364b878288016130bd565b945050602085013567ffffffffffffffff81111561366857600080fd5b61367487828801613111565b935050604085013567ffffffffffffffff81111561369157600080fd5b61369d878288016130e7565b925050606085013567ffffffffffffffff8111156136ba57600080fd5b6136c687828801613223565b91505092959194509250565b6000602082840312156136e457600080fd5b60006136f284828501613150565b91505092915050565b60006020828403121561370d57600080fd5b600061371b8482850161324d565b91505092915050565b60006020828403121561373657600080fd5b600061374484828501613262565b91505092915050565b6000806040838503121561376057600080fd5b600061376e8582860161324d565b925050602061377f858286016130a8565b9150509250929050565b6000806040838503121561379c57600080fd5b60006137aa8582860161324d565b92505060206137bb85828601613277565b9150509250929050565b600080600080606085870312156137db57600080fd5b60006137e98782880161324d565b94505060206137fa87828801613277565b935050604085013567ffffffffffffffff81111561381757600080fd5b613823878288016131d9565b925092505092959194509250565b60008060008060006080868803121561384957600080fd5b60006138578882890161324d565b955050602061386888828901613277565b945050604086013567ffffffffffffffff81111561388557600080fd5b613891888289016131d9565b9350935050606086013567ffffffffffffffff8111156138b057600080fd5b6138bc888289016131af565b9150509295509295909350565b60008060008060008060008060e0898b0312156138e557600080fd5b60006138f38b828c0161324d565b98505060206139048b828c01613277565b975050604089013567ffffffffffffffff81111561392157600080fd5b61392d8b828c016131d9565b9650965050606089013567ffffffffffffffff81111561394c57600080fd5b6139588b828c016131af565b94505060806139698b828c01613277565b93505060a061397a8b828c0161313b565b92505060c061398b8b828c0161313b565b9150509295985092959890939650565b600080600080600060a086880312156139b357600080fd5b60006139c18882890161324d565b95505060206139d288828901613277565b94505060406139e388828901613277565b93505060606139f48882890161313b565b9250506080613a058882890161313b565b9150509295509295909350565b6000613a1e8383613a6a565b60208301905092915050565b6000613a368383613c97565b905092915050565b6000613a4a8383613d58565b905092915050565b6000613a5e8383614063565b60208301905092915050565b613a7381614b1e565b82525050565b613a8281614b1e565b82525050565b6000613a93826148b7565b613a9d818561492d565b9350613aa883614877565b8060005b83811015613ad9578151613ac08882613a12565b9750613acb836148f9565b925050600181019050613aac565b5085935050505092915050565b6000613af1826148c2565b613afb818561493e565b935083602082028501613b0d85614887565b8060005b85811015613b495784840389528151613b2a8582613a2a565b9450613b3583614906565b925060208a01995050600181019050613b11565b50829750879550505050505092915050565b6000613b66826148cd565b613b70818561494f565b935083602082028501613b8285614897565b8060005b85811015613bbe5784840389528151613b9f8582613a3e565b9450613baa83614913565b925060208a01995050600181019050613b86565b50829750879550505050505092915050565b6000613bdb826148d8565b613be58185614960565b9350613bf0836148a7565b8060005b83811015613c21578151613c088882613a52565b9750613c1383614920565b925050600181019050613bf4565b5085935050505092915050565b613c3781614b30565b82525050565b613c4681614b3c565b82525050565b613c5d613c5882614b3c565b614d06565b82525050565b613c6c81614b46565b82525050565b6000613c7e8385614993565b9350613c8b838584614c18565b82840190509392505050565b6000613ca2826148e3565b613cac8185614971565b9350613cbc818560208601614c27565b613cc581614dfb565b840191505092915050565b6000613cdb826148e3565b613ce58185614982565b9350613cf5818560208601614c27565b613cfe81614dfb565b840191505092915050565b6000613d14826148e3565b613d1e8185614993565b9350613d2e818560208601614c27565b80840191505092915050565b613d4381614bd0565b82525050565b613d5281614bf4565b82525050565b6000613d63826148ee565b613d6d818561499e565b9350613d7d818560208601614c27565b613d8681614dfb565b840191505092915050565b6000613d9c826148ee565b613da681856149af565b9350613db6818560208601614c27565b613dbf81614dfb565b840191505092915050565b6000613dd76018836149af565b9150613de282614e0c565b602082019050919050565b6000613dfa6018836149af565b9150613e0582614e35565b602082019050919050565b6000613e1d6043836149af565b9150613e2882614e5e565b606082019050919050565b6000613e40601f836149af565b9150613e4b82614ed3565b602082019050919050565b6000613e636002836149c0565b9150613e6e82614efc565b600282019050919050565b6000613e866021836149af565b9150613e9182614f25565b604082019050919050565b6000613ea96022836149af565b9150613eb482614f74565b604082019050919050565b6000613ecc6027836149af565b9150613ed782614fc3565b604082019050919050565b6000613eef6026836149af565b9150613efa82615012565b604082019050919050565b6000613f126023836149af565b9150613f1d82615061565b604082019050919050565b6000613f356018836149af565b9150613f40826150b0565b602082019050919050565b6000613f586022836149af565b9150613f63826150d9565b604082019050919050565b6000613f7b6026836149af565b9150613f8682615128565b604082019050919050565b6000613f9e6021836149af565b9150613fa982615177565b604082019050919050565b6000613fc1601d836149af565b9150613fcc826151c6565b602082019050919050565b6000613fe46035836149af565b9150613fef826151ef565b604082019050919050565b60006140076021836149af565b91506140128261523e565b604082019050919050565b600061402a601d836149af565b91506140358261528d565b602082019050919050565b600061404d6031836149af565b9150614058826152b6565b604082019050919050565b61406c81614ba5565b82525050565b61407b81614ba5565b82525050565b61408a81614c06565b82525050565b61409981614bc3565b82525050565b60006140ac828486613c72565b91508190509392505050565b60006140c48284613d09565b915081905092915050565b60006140da82613e56565b91506140e68285613c4c565b6020820191506140f68284613c4c565b6020820191508190509392505050565b600060408201905061411b6000830185613a79565b6141286020830184614072565b9392505050565b600060808201905081810360008301526141498187613a88565b9050818103602083015261415d8186613bd0565b905081810360408301526141718185613ae6565b90506141806060830184613c3d565b95945050505050565b600060208201905061419e6000830184613c2e565b92915050565b60006020820190506141b96000830184613c3d565b92915050565b600060a0820190506141d46000830188613c3d565b6141e16020830187613c3d565b6141ee6040830186613c3d565b6141fb6060830185614072565b6142086080830184613a79565b9695505050505050565b60006060820190506142276000830186613c3d565b6142346020830185614072565b6142416040830184614090565b949350505050565b600060a08201905061425e6000830188613c3d565b61426b6020830187614072565b6142786040830186614090565b6142856060830185613c3d565b6142926080830184613c3d565b9695505050505050565b60006080820190506142b16000830187613c3d565b6142be6020830186614090565b6142cb6040830185613c3d565b6142d86060830184613c3d565b95945050505050565b60006020820190506142f66000830184613c63565b92915050565b60006020820190506143116000830184613d3a565b92915050565b600060208201905061432c6000830184613d49565b92915050565b6000602082019050818103600083015261434c8184613d91565b905092915050565b6000602082019050818103600083015261436d81613dca565b9050919050565b6000602082019050818103600083015261438d81613ded565b9050919050565b600060208201905081810360008301526143ad81613e10565b9050919050565b600060208201905081810360008301526143cd81613e33565b9050919050565b600060208201905081810360008301526143ed81613e79565b9050919050565b6000602082019050818103600083015261440d81613e9c565b9050919050565b6000602082019050818103600083015261442d81613ebf565b9050919050565b6000602082019050818103600083015261444d81613ee2565b9050919050565b6000602082019050818103600083015261446d81613f05565b9050919050565b6000602082019050818103600083015261448d81613f28565b9050919050565b600060208201905081810360008301526144ad81613f4b565b9050919050565b600060208201905081810360008301526144cd81613f6e565b9050919050565b600060208201905081810360008301526144ed81613f91565b9050919050565b6000602082019050818103600083015261450d81613fb4565b9050919050565b6000602082019050818103600083015261452d81613fd7565b9050919050565b6000602082019050818103600083015261454d81613ffa565b9050919050565b6000602082019050818103600083015261456d8161401d565b9050919050565b6000602082019050818103600083015261458d81614040565b9050919050565b60006020820190506145a96000830184614072565b92915050565b6000610120820190506145c5600083018c614072565b6145d2602083018b613a79565b81810360408301526145e4818a613a88565b905081810360608301526145f88189613bd0565b9050818103608083015261460c8188613b5b565b905081810360a08301526146208187613ae6565b905061462f60c0830186614081565b61463c60e0830185614081565b81810361010083015261464f8184613d91565b90509a9950505050505050505050565b60006040820190506146746000830185614072565b6146816020830184614072565b9392505050565b600060608201905061469d6000830186614072565b6146aa6020830185614072565b6146b76040830184614072565b949350505050565b60006080820190506146d46000830187614072565b6146e16020830186614090565b6146ee6040830185614072565b81810360608301526147008184613d91565b905095945050505050565b600060a0820190506147206000830188614072565b61472d6020830187614090565b61473a6040830186614072565b818103606083015261474c8185613d91565b905081810360808301526147608184613cd0565b90509695505050505050565b6000614776614787565b90506147828282614c8c565b919050565b6000604051905090565b600067ffffffffffffffff8211156147ac576147ab614dcc565b5b602082029050602081019050919050565b600067ffffffffffffffff8211156147d8576147d7614dcc565b5b602082029050602081019050919050565b600067ffffffffffffffff82111561480457614803614dcc565b5b602082029050602081019050919050565b600067ffffffffffffffff8211156148305761482f614dcc565b5b61483982614dfb565b9050602081019050919050565b600067ffffffffffffffff82111561486157614860614dcc565b5b61486a82614dfb565b9050602081019050919050565b6000819050602082019050919050565b6000819050602082019050919050565b6000819050602082019050919050565b6000819050602082019050919050565b600081519050919050565b600081519050919050565b600081519050919050565b600081519050919050565b600081519050919050565b600081519050919050565b6000602082019050919050565b6000602082019050919050565b6000602082019050919050565b6000602082019050919050565b600082825260208201905092915050565b600082825260208201905092915050565b600082825260208201905092915050565b600082825260208201905092915050565b600082825260208201905092915050565b600082825260208201905092915050565b600081905092915050565b600082825260208201905092915050565b600082825260208201905092915050565b600081905092915050565b60006149d682614ba5565b91506149e183614ba5565b9250827fffffffffffffffffffffffffffffffffffffffffffffffffffffffffffffffff03821115614a1657614a15614d10565b5b828201905092915050565b6000614a2c82614baf565b9150614a3783614baf565b92508267ffffffffffffffff03821115614a5457614a53614d10565b5b828201905092915050565b6000614a6a82614ba5565b9150614a7583614ba5565b925082614a8557614a84614d3f565b5b828204905092915050565b6000614a9b82614ba5565b9150614aa683614ba5565b9250817fffffffffffffffffffffffffffffffffffffffffffffffffffffffffffffffff0483118215151615614adf57614ade614d10565b5b828202905092915050565b6000614af582614ba5565b9150614b0083614ba5565b925082821015614b1357614b12614d10565b5b828203905092915050565b6000614b2982614b85565b9050919050565b60008115159050919050565b6000819050919050565b60007fffffffff0000000000000000000000000000000000000000000000000000000082169050919050565b6000819050614b8082615305565b919050565b600073ffffffffffffffffffffffffffffffffffffffff82169050919050565b6000819050919050565b600067ffffffffffffffff82169050919050565b600060ff82169050919050565b6000614bdb82614be2565b9050919050565b6000614bed82614b85565b9050919050565b6000614bff82614b72565b9050919050565b6000614c1182614baf565b9050919050565b82818337600083830152505050565b60005b83811015614c45578082015181840152602081019050614c2a565b83811115614c54576000848401525b50505050565b60006002820490506001821680614c7257607f821691505b60208210811415614c8657614c85614d9d565b5b50919050565b614c9582614dfb565b810181811067ffffffffffffffff82111715614cb457614cb3614dcc565b5b80604052505050565b6000614cc882614ba5565b91507fffffffffffffffffffffffffffffffffffffffffffffffffffffffffffffffff821415614cfb57614cfa614d10565b5b600182019050919050565b6000819050919050565b7f4e487b7100000000000000000000000000000000000000000000000000000000600052601160045260246000fd5b7f4e487b7100000000000000000000000000000000000000000000000000000000600052601260045260246000fd5b7f4e487b7100000000000000000000000000000000000000000000000000000000600052602160045260246000fd5b7f4e487b7100000000000000000000000000000000000000000000000000000000600052602260045260246000fd5b7f4e487b7100000000000000000000000000000000000000000000000000000000600052604160045260246000fd5b6000601f19601f8301169050919050565b7f45434453413a20696e76616c6964207369676e61747572650000000000000000600082015250565b7f476f7665726e6f723a206f6e6c79476f7665726e616e63650000000000000000600082015250565b7f476f7665726e6f72566f74657351756f72756d4672616374696f6e3a2071756f60008201527f72756d4e756d657261746f72206f7665722071756f72756d44656e6f6d696e6160208201527f746f720000000000000000000000000000000000000000000000000000000000604082015250565b7f45434453413a20696e76616c6964207369676e6174757265206c656e67746800600082015250565b7f1901000000000000000000000000000000000000000000000000000000000000600082015250565b7f476f7665726e6f723a20696e76616c69642070726f706f73616c206c656e677460008201527f6800000000000000000000000000000000000000000000000000000000000000602082015250565b7f45434453413a20696e76616c6964207369676e6174757265202773272076616c60008201527f7565000000000000000000000000000000000000000000000000000000000000602082015250565b7f476f7665726e6f72566f74696e6753696d706c653a20766f746520616c72656160008201527f6479206361737400000000000000000000000000000000000000000000000000602082015250565b7f416464726573733a20696e73756666696369656e742062616c616e636520666f60008201527f722063616c6c0000000000000000000000000000000000000000000000000000602082015250565b7f476f7665726e6f723a20766f7465206e6f742063757272656e746c792061637460008201527f6976650000000000000000000000000000000000000000000000000000000000602082015250565b7f476f7665726e6f723a20656d7074792070726f706f73616c0000000000000000600082015250565b7f45434453413a20696e76616c6964207369676e6174757265202776272076616c60008201527f7565000000000000000000000000000000000000000000000000000000000000602082015250565b7f53616665436173743a2076616c756520646f65736e27742066697420696e203660008201527f3420626974730000000000000000000000000000000000000000000000000000602082015250565b7f476f7665726e6f723a2070726f706f73616c206e6f742073756363657373667560008201527f6c00000000000000000000000000000000000000000000000000000000000000602082015250565b7f476f7665726e6f723a20756e6b6e6f776e2070726f706f73616c206964000000600082015250565b7f476f7665726e6f72566f74696e6753696d706c653a20696e76616c696420766160008201527f6c756520666f7220656e756d20566f7465547970650000000000000000000000602082015250565b7f476f7665726e6f723a2070726f706f73616c20616c726561647920657869737460008201527f7300000000000000000000000000000000000000000000000000000000000000602082015250565b7f416464726573733a2063616c6c20746f206e6f6e2d636f6e7472616374000000600082015250565b7f476f7665726e6f723a2070726f706f73657220766f7465732062656c6f77207060008201527f726f706f73616c207468726573686f6c64000000000000000000000000000000602082015250565b6008811061531657615315614d6e565b5b50565b61532281614b1e565b811461532d57600080fd5b50565b61533981614b3c565b811461534457600080fd5b50565b61535081614b46565b811461535b57600080fd5b50565b61536781614ba5565b811461537257600080fd5b50565b61537e81614bc3565b811461538957600080fd5b5056fe476f7665726e6f723a2063616c6c20726576657274656420776974686f7574206d657373616765416464726573733a206c6f772d6c6576656c2063616c6c20776974682076616c7565206661696c6564a2646970667358221220fc236d197c70852dd414ce7b59baf9aa40bdd4bd6d58bafc18c00d164c64e73964736f6c63430008040033",
  "linkReferences": {},
  "deployedLinkReferences": {}
}