{
  "_format": "hh-sol-artifact-1",
  "contractName": "GovTokenMock",
  "sourceName": "contracts/mocks/GovTokenMock.sol",
  "abi": [
    {
      "inputs": [],
      "stateMutability": "nonpayable",
      "type": "constructor"
    },
    {
      "anonymous": false,
      "inputs": [
        {
          "indexed": true,
          "internalType": "address",
          "name": "owner",
          "type": "address"
        },
        {
          "indexed": true,
          "internalType": "address",
          "name": "spender",
          "type": "address"
        },
        {
          "indexed": false,
          "internalType": "uint256",
          "name": "value",
          "type": "uint256"
        }
      ],
      "name": "Approval",
      "type": "event"
    },
    {
      "anonymous": false,
      "inputs": [
        {
          "indexed": true,
          "internalType": "address",
          "name": "delegator",
          "type": "address"
        },
        {
          "indexed": true,
          "internalType": "address",
          "name": "fromDelegate",
          "type": "address"
        },
        {
          "indexed": true,
          "internalType": "address",
          "name": "toDelegate",
          "type": "address"
        }
      ],
      "name": "DelegateChanged",
      "type": "event"
    },
    {
      "anonymous": false,
      "inputs": [
        {
          "indexed": true,
          "internalType": "address",
          "name": "delegate",
          "type": "address"
        },
        {
          "indexed": false,
          "internalType": "uint256",
          "name": "previousBalance",
          "type": "uint256"
        },
        {
          "indexed": false,
          "internalType": "uint256",
          "name": "newBalance",
          "type": "uint256"
        }
      ],
      "name": "DelegateVotesChanged",
      "type": "event"
    },
    {
      "anonymous": false,
      "inputs": [
        {
          "indexed": true,
          "internalType": "address",
          "name": "from",
          "type": "address"
        },
        {
          "indexed": true,
          "internalType": "address",
          "name": "to",
          "type": "address"
        },
        {
          "indexed": false,
          "internalType": "uint256",
          "name": "value",
          "type": "uint256"
        }
      ],
      "name": "Transfer",
      "type": "event"
    },
    {
      "inputs": [],
      "name": "DOMAIN_SEPARATOR",
      "outputs": [
        {
          "internalType": "bytes32",
          "name": "",
          "type": "bytes32"
        }
      ],
      "stateMutability": "view",
      "type": "function"
    },
    {
      "inputs": [
        {
          "internalType": "address",
          "name": "owner",
          "type": "address"
        },
        {
          "internalType": "address",
          "name": "spender",
          "type": "address"
        }
      ],
      "name": "allowance",
      "outputs": [
        {
          "internalType": "uint256",
          "name": "",
          "type": "uint256"
        }
      ],
      "stateMutability": "view",
      "type": "function"
    },
    {
      "inputs": [
        {
          "internalType": "address",
          "name": "spender",
          "type": "address"
        },
        {
          "internalType": "uint256",
          "name": "amount",
          "type": "uint256"
        }
      ],
      "name": "approve",
      "outputs": [
        {
          "internalType": "bool",
          "name": "",
          "type": "bool"
        }
      ],
      "stateMutability": "nonpayable",
      "type": "function"
    },
    {
      "inputs": [
        {
          "internalType": "address",
          "name": "account",
          "type": "address"
        }
      ],
      "name": "balanceOf",
      "outputs": [
        {
          "internalType": "uint256",
          "name": "",
          "type": "uint256"
        }
      ],
      "stateMutability": "view",
      "type": "function"
    },
    {
      "inputs": [
        {
          "internalType": "address",
          "name": "account",
          "type": "address"
        },
        {
          "internalType": "uint32",
          "name": "pos",
          "type": "uint32"
        }
      ],
      "name": "checkpoints",
      "outputs": [
        {
          "components": [
            {
              "internalType": "uint32",
              "name": "fromBlock",
              "type": "uint32"
            },
            {
              "internalType": "uint224",
              "name": "votes",
              "type": "uint224"
            }
          ],
          "internalType": "struct ERC20Votes.Checkpoint",
          "name": "",
          "type": "tuple"
        }
      ],
      "stateMutability": "view",
      "type": "function"
    },
    {
      "inputs": [],
      "name": "decimals",
      "outputs": [
        {
          "internalType": "uint8",
          "name": "",
          "type": "uint8"
        }
      ],
      "stateMutability": "view",
      "type": "function"
    },
    {
      "inputs": [
        {
          "internalType": "address",
          "name": "spender",
          "type": "address"
        },
        {
          "internalType": "uint256",
          "name": "subtractedValue",
          "type": "uint256"
        }
      ],
      "name": "decreaseAllowance",
      "outputs": [
        {
          "internalType": "bool",
          "name": "",
          "type": "bool"
        }
      ],
      "stateMutability": "nonpayable",
      "type": "function"
    },
    {
      "inputs": [
        {
          "internalType": "address",
          "name": "delegatee",
          "type": "address"
        }
      ],
      "name": "delegate",
      "outputs": [],
      "stateMutability": "nonpayable",
      "type": "function"
    },
    {
      "inputs": [
        {
          "internalType": "address",
          "name": "delegatee",
          "type": "address"
        },
        {
          "internalType": "uint256",
          "name": "nonce",
          "type": "uint256"
        },
        {
          "internalType": "uint256",
          "name": "expiry",
          "type": "uint256"
        },
        {
          "internalType": "uint8",
          "name": "v",
          "type": "uint8"
        },
        {
          "internalType": "bytes32",
          "name": "r",
          "type": "bytes32"
        },
        {
          "internalType": "bytes32",
          "name": "s",
          "type": "bytes32"
        }
      ],
      "name": "delegateBySig",
      "outputs": [],
      "stateMutability": "nonpayable",
      "type": "function"
    },
    {
      "inputs": [
        {
          "internalType": "address",
          "name": "account",
          "type": "address"
        }
      ],
      "name": "delegates",
      "outputs": [
        {
          "internalType": "address",
          "name": "",
          "type": "address"
        }
      ],
      "stateMutability": "view",
      "type": "function"
    },
    {
      "inputs": [
        {
          "internalType": "uint256",
          "name": "blockNumber",
          "type": "uint256"
        }
      ],
      "name": "getPastTotalSupply",
      "outputs": [
        {
          "internalType": "uint256",
          "name": "",
          "type": "uint256"
        }
      ],
      "stateMutability": "view",
      "type": "function"
    },
    {
      "inputs": [
        {
          "internalType": "address",
          "name": "account",
          "type": "address"
        },
        {
          "internalType": "uint256",
          "name": "blockNumber",
          "type": "uint256"
        }
      ],
      "name": "getPastVotes",
      "outputs": [
        {
          "internalType": "uint256",
          "name": "",
          "type": "uint256"
        }
      ],
      "stateMutability": "view",
      "type": "function"
    },
    {
      "inputs": [
        {
          "internalType": "address",
          "name": "account",
          "type": "address"
        }
      ],
      "name": "getVotes",
      "outputs": [
        {
          "internalType": "uint256",
          "name": "",
          "type": "uint256"
        }
      ],
      "stateMutability": "view",
      "type": "function"
    },
    {
      "inputs": [
        {
          "internalType": "address",
          "name": "spender",
          "type": "address"
        },
        {
          "internalType": "uint256",
          "name": "addedValue",
          "type": "uint256"
        }
      ],
      "name": "increaseAllowance",
      "outputs": [
        {
          "internalType": "bool",
          "name": "",
          "type": "bool"
        }
      ],
      "stateMutability": "nonpayable",
      "type": "function"
    },
    {
      "inputs": [
        {
          "internalType": "address",
          "name": "to",
          "type": "address"
        },
        {
          "internalType": "uint256",
          "name": "amount",
          "type": "uint256"
        }
      ],
      "name": "mint",
      "outputs": [],
      "stateMutability": "nonpayable",
      "type": "function"
    },
    {
      "inputs": [],
      "name": "name",
      "outputs": [
        {
          "internalType": "string",
          "name": "",
          "type": "string"
        }
      ],
      "stateMutability": "view",
      "type": "function"
    },
    {
      "inputs": [
        {
          "internalType": "address",
          "name": "owner",
          "type": "address"
        }
      ],
      "name": "nonces",
      "outputs": [
        {
          "internalType": "uint256",
          "name": "",
          "type": "uint256"
        }
      ],
      "stateMutability": "view",
      "type": "function"
    },
    {
      "inputs": [
        {
          "internalType": "address",
          "name": "account",
          "type": "address"
        }
      ],
      "name": "numCheckpoints",
      "outputs": [
        {
          "internalType": "uint32",
          "name": "",
          "type": "uint32"
        }
      ],
      "stateMutability": "view",
      "type": "function"
    },
    {
      "inputs": [
        {
          "internalType": "address",
          "name": "owner",
          "type": "address"
        },
        {
          "internalType": "address",
          "name": "spender",
          "type": "address"
        },
        {
          "internalType": "uint256",
          "name": "value",
          "type": "uint256"
        },
        {
          "internalType": "uint256",
          "name": "deadline",
          "type": "uint256"
        },
        {
          "internalType": "uint8",
          "name": "v",
          "type": "uint8"
        },
        {
          "internalType": "bytes32",
          "name": "r",
          "type": "bytes32"
        },
        {
          "internalType": "bytes32",
          "name": "s",
          "type": "bytes32"
        }
      ],
      "name": "permit",
      "outputs": [],
      "stateMutability": "nonpayable",
      "type": "function"
    },
    {
      "inputs": [],
      "name": "symbol",
      "outputs": [
        {
          "internalType": "string",
          "name": "",
          "type": "string"
        }
      ],
      "stateMutability": "view",
      "type": "function"
    },
    {
      "inputs": [],
      "name": "totalSupply",
      "outputs": [
        {
          "internalType": "uint256",
          "name": "",
          "type": "uint256"
        }
      ],
      "stateMutability": "view",
      "type": "function"
    },
    {
      "inputs": [
        {
          "internalType": "address",
          "name": "to",
          "type": "address"
        },
        {
          "internalType": "uint256",
          "name": "amount",
          "type": "uint256"
        }
      ],
      "name": "transfer",
      "outputs": [
        {
          "internalType": "bool",
          "name": "",
          "type": "bool"
        }
      ],
      "stateMutability": "nonpayable",
      "type": "function"
    },
    {
      "inputs": [
        {
          "internalType": "address",
          "name": "from",
          "type": "address"
        },
        {
          "internalType": "address",
          "name": "to",
          "type": "address"
        },
        {
          "internalType": "uint256",
          "name": "amount",
          "type": "uint256"
        }
      ],
      "name": "transferFrom",
      "outputs": [
        {
          "internalType": "bool",
          "name": "",
          "type": "bool"
        }
      ],
      "stateMutability": "nonpayable",
      "type": "function"
    }
  ],
  "bytecode": "0x6101406040523480156200001257600080fd5b506040518060400160405280600c81526020017f476f76546f6b656e4d6f636b0000000000000000000000000000000000000000815250806040518060400160405280600181526020017f31000000000000000000000000000000000000000000000000000000000000008152506040518060400160405280600c81526020017f476f76546f6b656e4d6f636b00000000000000000000000000000000000000008152506040518060400160405280600381526020017f474f56000000000000000000000000000000000000000000000000000000000081525081600390805190602001906200010492919062000218565b5080600490805190602001906200011d92919062000218565b50505060008280519060200120905060008280519060200120905060007f8b73c3c69bb8fe3d512ecc4cf759cc79239f7b179b0ffacaa9a75d522b39400f90508260e081815250508161010081815250504660a0818152505062000189818484620001dc60201b60201c565b608081815250503073ffffffffffffffffffffffffffffffffffffffff1660c08173ffffffffffffffffffffffffffffffffffffffff1660601b8152505080610120818152505050505050505062000405565b60008383834630604051602001620001f9959493929190620002fb565b6040516020818303038152906040528051906020012090509392505050565b8280546200022690620003a0565b90600052602060002090601f0160209004810192826200024a576000855562000296565b82601f106200026557805160ff191683800117855562000296565b8280016001018555821562000296579182015b828111156200029557825182559160200191906001019062000278565b5b509050620002a59190620002a9565b5090565b5b80821115620002c4576000816000905550600101620002aa565b5090565b620002d38162000358565b82525050565b620002e4816200036c565b82525050565b620002f58162000396565b82525050565b600060a082019050620003126000830188620002d9565b620003216020830187620002d9565b620003306040830186620002d9565b6200033f6060830185620002ea565b6200034e6080830184620002c8565b9695505050505050565b6000620003658262000376565b9050919050565b6000819050919050565b600073ffffffffffffffffffffffffffffffffffffffff82169050919050565b6000819050919050565b60006002820490506001821680620003b957607f821691505b60208210811415620003d057620003cf620003d6565b5b50919050565b7f4e487b7100000000000000000000000000000000000000000000000000000000600052602260045260246000fd5b60805160a05160c05160601c60e051610100516101205161397562000458600039600061148a015260006114cc015260006114ab015260006113e0015260006114360152600061145f01526139756000f3fe608060405234801561001057600080fd5b506004361061014d5760003560e01c80636fcfff45116100c3578063a457c2d71161007c578063a457c2d714610400578063a9059cbb14610430578063c3cda52014610460578063d505accf1461047c578063dd62ed3e14610498578063f1127ed8146104c85761014d565b80636fcfff45146102f257806370a08231146103225780637ecebe00146103525780638e539e8c1461038257806395d89b41146103b25780639ab24eb0146103d05761014d565b80633644e515116101155780633644e5151461020c578063395093511461022a5780633a46b1a81461025a57806340c10f191461028a578063587cde1e146102a65780635c19a95c146102d65761014d565b806306fdde0314610152578063095ea7b31461017057806318160ddd146101a057806323b872dd146101be578063313ce567146101ee575b600080fd5b61015a6104f8565b6040516101679190612e10565b60405180910390f35b61018a6004803603810190610185919061274a565b61058a565b6040516101979190612c9c565b60405180910390f35b6101a86105ad565b6040516101b591906130cd565b60405180910390f35b6101d860048036038101906101d3919061265d565b6105b7565b6040516101e59190612c9c565b60405180910390f35b6101f66105e6565b604051610203919061312c565b60405180910390f35b6102146105ef565b6040516102219190612cb7565b60405180910390f35b610244600480360381019061023f919061274a565b6105fe565b6040516102519190612c9c565b60405180910390f35b610274600480360381019061026f919061274a565b610635565b60405161028191906130cd565b60405180910390f35b6102a4600480360381019061029f919061274a565b6106c9565b005b6102c060048036038101906102bb91906125f8565b6106d7565b6040516102cd9190612c81565b60405180910390f35b6102f060048036038101906102eb91906125f8565b610740565b005b61030c600480360381019061030791906125f8565b610754565b6040516103199190613111565b60405180910390f35b61033c600480360381019061033791906125f8565b6107a8565b60405161034991906130cd565b60405180910390f35b61036c600480360381019061036791906125f8565b6107f0565b60405161037991906130cd565b60405180910390f35b61039c6004803603810190610397919061284b565b610840565b6040516103a991906130cd565b60405180910390f35b6103ba610896565b6040516103c79190612e10565b60405180910390f35b6103ea60048036038101906103e591906125f8565b610928565b6040516103f791906130cd565b60405180910390f35b61041a6004803603810190610415919061274a565b610a5f565b6040516104279190612c9c565b60405180910390f35b61044a6004803603810190610445919061274a565b610ad6565b6040516104579190612c9c565b60405180910390f35b61047a60048036038101906104759190612786565b610af9565b005b610496600480360381019061049191906126ac565b610bfd565b005b6104b260048036038101906104ad9190612621565b610d3f565b6040516104bf91906130cd565b60405180910390f35b6104e260048036038101906104dd919061280f565b610dc6565b6040516104ef91906130b2565b60405180910390f35b606060038054610507906132f3565b80601f0160208091040260200160405190810160405280929190818152602001828054610533906132f3565b80156105805780601f1061055557610100808354040283529160200191610580565b820191906000526020600020905b81548152906001019060200180831161056357829003601f168201915b5050505050905090565b600080610595610efc565b90506105a2818585610f04565b600191505092915050565b6000600254905090565b6000806105c2610efc565b90506105cf8582856110cf565b6105da85858561115b565b60019150509392505050565b60006012905090565b60006105f96113dc565b905090565b600080610609610efc565b905061062a81858561061b8589610d3f565b610625919061316e565b610f04565b600191505092915050565b6000438210610679576040517f08c379a000000000000000000000000000000000000000000000000000000000815260040161067090612e72565b60405180910390fd5b6106c1600860008573ffffffffffffffffffffffffffffffffffffffff1673ffffffffffffffffffffffffffffffffffffffff168152602001908152602001600020836114f6565b905092915050565b6106d3828261164e565b5050565b6000600760008373ffffffffffffffffffffffffffffffffffffffff1673ffffffffffffffffffffffffffffffffffffffff16815260200190815260200160002060009054906101000a900473ffffffffffffffffffffffffffffffffffffffff169050919050565b61075161074b610efc565b8261165c565b50565b60006107a1600860008473ffffffffffffffffffffffffffffffffffffffff1673ffffffffffffffffffffffffffffffffffffffff16815260200190815260200160002080549050611776565b9050919050565b60008060008373ffffffffffffffffffffffffffffffffffffffff1673ffffffffffffffffffffffffffffffffffffffff168152602001908152602001600020549050919050565b6000610839600560008473ffffffffffffffffffffffffffffffffffffffff1673ffffffffffffffffffffffffffffffffffffffff1681526020019081526020016000206117c9565b9050919050565b6000438210610884576040517f08c379a000000000000000000000000000000000000000000000000000000000815260040161087b90612e72565b60405180910390fd5b61088f6009836114f6565b9050919050565b6060600480546108a5906132f3565b80601f01602080910402602001604051908101604052809291908181526020018280546108d1906132f3565b801561091e5780601f106108f35761010080835404028352916020019161091e565b820191906000526020600020905b81548152906001019060200180831161090157829003601f168201915b5050505050905090565b600080600860008473ffffffffffffffffffffffffffffffffffffffff1673ffffffffffffffffffffffffffffffffffffffff16815260200190815260200160002080549050905060008114610a3657600860008473ffffffffffffffffffffffffffffffffffffffff1673ffffffffffffffffffffffffffffffffffffffff1681526020019081526020016000206001826109c491906131f5565b815481106109fb577f4e487b7100000000000000000000000000000000000000000000000000000000600052603260045260246000fd5b9060005260206000200160000160049054906101000a90047bffffffffffffffffffffffffffffffffffffffffffffffffffffffff16610a39565b60005b7bffffffffffffffffffffffffffffffffffffffffffffffffffffffff16915050919050565b600080610a6a610efc565b90506000610a788286610d3f565b905083811015610abd576040517f08c379a0000000000000000000000000000000000000000000000000000000008152600401610ab490613072565b60405180910390fd5b610aca8286868403610f04565b60019250505092915050565b600080610ae1610efc565b9050610aee81858561115b565b600191505092915050565b83421115610b3c576040517f08c379a0000000000000000000000000000000000000000000000000000000008152600401610b3390612e92565b60405180910390fd5b6000610b9e610b967fe48329057bfd03d55e49b547132e39cffd9c1820ad7b9d4c5307691425d15adf898989604051602001610b7b9493929190612d33565b604051602081830303815290604052805190602001206117d7565b8585856117f1565b9050610ba98161181c565b8614610bea576040517f08c379a0000000000000000000000000000000000000000000000000000000008152600401610be190612ed2565b60405180910390fd5b610bf4818861165c565b50505050505050565b83421115610c40576040517f08c379a0000000000000000000000000000000000000000000000000000000008152600401610c3790612f32565b60405180910390fd5b60007f6e71edae12b1b97f4d1f60370fef10105fa2faae0126114a169c64845d6126c9888888610c6f8c61181c565b89604051602001610c8596959493929190612cd2565b6040516020818303038152906040528051906020012090506000610ca8826117d7565b90506000610cb8828787876117f1565b90508973ffffffffffffffffffffffffffffffffffffffff168173ffffffffffffffffffffffffffffffffffffffff1614610d28576040517f08c379a0000000000000000000000000000000000000000000000000000000008152600401610d1f90612fb2565b60405180910390fd5b610d338a8a8a610f04565b50505050505050505050565b6000600160008473ffffffffffffffffffffffffffffffffffffffff1673ffffffffffffffffffffffffffffffffffffffff16815260200190815260200160002060008373ffffffffffffffffffffffffffffffffffffffff1673ffffffffffffffffffffffffffffffffffffffff16815260200190815260200160002054905092915050565b610dce612551565b600860008473ffffffffffffffffffffffffffffffffffffffff1673ffffffffffffffffffffffffffffffffffffffff1681526020019081526020016000208263ffffffff1681548110610e4b577f4e487b7100000000000000000000000000000000000000000000000000000000600052603260045260246000fd5b906000526020600020016040518060400160405290816000820160009054906101000a900463ffffffff1663ffffffff1663ffffffff1681526020016000820160049054906101000a90047bffffffffffffffffffffffffffffffffffffffffffffffffffffffff167bffffffffffffffffffffffffffffffffffffffffffffffffffffffff167bffffffffffffffffffffffffffffffffffffffffffffffffffffffff1681525050905092915050565b600033905090565b600073ffffffffffffffffffffffffffffffffffffffff168373ffffffffffffffffffffffffffffffffffffffff161415610f74576040517f08c379a0000000000000000000000000000000000000000000000000000000008152600401610f6b90613052565b60405180910390fd5b600073ffffffffffffffffffffffffffffffffffffffff168273ffffffffffffffffffffffffffffffffffffffff161415610fe4576040517f08c379a0000000000000000000000000000000000000000000000000000000008152600401610fdb90612ef2565b60405180910390fd5b80600160008573ffffffffffffffffffffffffffffffffffffffff1673ffffffffffffffffffffffffffffffffffffffff16815260200190815260200160002060008473ffffffffffffffffffffffffffffffffffffffff1673ffffffffffffffffffffffffffffffffffffffff168152602001908152602001600020819055508173ffffffffffffffffffffffffffffffffffffffff168373ffffffffffffffffffffffffffffffffffffffff167f8c5be1e5ebec7d5bd14f71427d1e84f3dd0314c0f7b2291e5b200ac8c7c3b925836040516110c291906130cd565b60405180910390a3505050565b60006110db8484610d3f565b90507fffffffffffffffffffffffffffffffffffffffffffffffffffffffffffffffff81146111555781811015611147576040517f08c379a000000000000000000000000000000000000000000000000000000000815260040161113e90612f12565b60405180910390fd5b6111548484848403610f04565b5b50505050565b600073ffffffffffffffffffffffffffffffffffffffff168373ffffffffffffffffffffffffffffffffffffffff1614156111cb576040517f08c379a00000000000000000000000000000000000000000000000000000000081526004016111c290613012565b60405180910390fd5b600073ffffffffffffffffffffffffffffffffffffffff168273ffffffffffffffffffffffffffffffffffffffff16141561123b576040517f08c379a000000000000000000000000000000000000000000000000000000000815260040161123290612e52565b60405180910390fd5b61124683838361187a565b60008060008573ffffffffffffffffffffffffffffffffffffffff1673ffffffffffffffffffffffffffffffffffffffff168152602001908152602001600020549050818110156112cc576040517f08c379a00000000000000000000000000000000000000000000000000000000081526004016112c390612f52565b60405180910390fd5b8181036000808673ffffffffffffffffffffffffffffffffffffffff1673ffffffffffffffffffffffffffffffffffffffff16815260200190815260200160002081905550816000808573ffffffffffffffffffffffffffffffffffffffff1673ffffffffffffffffffffffffffffffffffffffff168152602001908152602001600020600082825461135f919061316e565b925050819055508273ffffffffffffffffffffffffffffffffffffffff168473ffffffffffffffffffffffffffffffffffffffff167fddf252ad1be2c89b69c2b068fc378daa952ba7f163c4a11628f55a4df523b3ef846040516113c391906130cd565b60405180910390a36113d684848461187f565b50505050565b60007f000000000000000000000000000000000000000000000000000000000000000073ffffffffffffffffffffffffffffffffffffffff163073ffffffffffffffffffffffffffffffffffffffff1614801561145857507f000000000000000000000000000000000000000000000000000000000000000046145b15611485577f000000000000000000000000000000000000000000000000000000000000000090506114f3565b6114f07f00000000000000000000000000000000000000000000000000000000000000007f00000000000000000000000000000000000000000000000000000000000000007f000000000000000000000000000000000000000000000000000000000000000061188f565b90505b90565b6000808380549050905060005b8181101561159b57600061151782846118c9565b905084868281548110611553577f4e487b7100000000000000000000000000000000000000000000000000000000600052603260045260246000fd5b9060005260206000200160000160009054906101000a900463ffffffff1663ffffffff16111561158557809250611595565b600181611592919061316e565b91505b50611503565b6000821461162357846001836115b191906131f5565b815481106115e8577f4e487b7100000000000000000000000000000000000000000000000000000000600052603260045260246000fd5b9060005260206000200160000160049054906101000a90047bffffffffffffffffffffffffffffffffffffffffffffffffffffffff16611626565b60005b7bffffffffffffffffffffffffffffffffffffffffffffffffffffffff169250505092915050565b61165882826118ef565b5050565b6000611667836106d7565b90506000611674846107a8565b905082600760008673ffffffffffffffffffffffffffffffffffffffff1673ffffffffffffffffffffffffffffffffffffffff16815260200190815260200160002060006101000a81548173ffffffffffffffffffffffffffffffffffffffff021916908373ffffffffffffffffffffffffffffffffffffffff1602179055508273ffffffffffffffffffffffffffffffffffffffff168273ffffffffffffffffffffffffffffffffffffffff168573ffffffffffffffffffffffffffffffffffffffff167f3134e8a2e6d97e929a7e54011ea5485d7d196dd5f0ba4d4ef95803e8e3fc257f60405160405180910390a461177082848361197c565b50505050565b600063ffffffff80168211156117c1576040517f08c379a00000000000000000000000000000000000000000000000000000000081526004016117b890613032565b60405180910390fd5b819050919050565b600081600001549050919050565b60006117ea6117e46113dc565b83611b75565b9050919050565b600080600061180287878787611ba8565b9150915061180f81611cb5565b8192505050949350505050565b600080600560008473ffffffffffffffffffffffffffffffffffffffff1673ffffffffffffffffffffffffffffffffffffffff1681526020019081526020016000209050611869816117c9565b915061187481612006565b50919050565b505050565b61188a83838361201c565b505050565b600083838346306040516020016118aa959493929190612d78565b6040516020818303038152906040528051906020012090509392505050565b600060028284186118da91906131c4565b8284166118e7919061316e565b905092915050565b6118f98282612047565b6119016121a7565b7bffffffffffffffffffffffffffffffffffffffffffffffffffffffff166119276105ad565b1115611968576040517f08c379a000000000000000000000000000000000000000000000000000000000815260040161195f90612fd2565b60405180910390fd5b61197660096121cb836121e1565b50505050565b8173ffffffffffffffffffffffffffffffffffffffff168373ffffffffffffffffffffffffffffffffffffffff16141580156119b85750600081115b15611b7057600073ffffffffffffffffffffffffffffffffffffffff168373ffffffffffffffffffffffffffffffffffffffff1614611a9657600080611a3f600860008773ffffffffffffffffffffffffffffffffffffffff1673ffffffffffffffffffffffffffffffffffffffff1681526020019081526020016000206124cb856121e1565b915091508473ffffffffffffffffffffffffffffffffffffffff167fdec2bacdd2f05b59de34da9b523dff8be42e5e38e818c82fdb0bae774387a7248383604051611a8b9291906130e8565b60405180910390a250505b600073ffffffffffffffffffffffffffffffffffffffff168273ffffffffffffffffffffffffffffffffffffffff1614611b6f57600080611b18600860008673ffffffffffffffffffffffffffffffffffffffff1673ffffffffffffffffffffffffffffffffffffffff1681526020019081526020016000206121cb856121e1565b915091508373ffffffffffffffffffffffffffffffffffffffff167fdec2bacdd2f05b59de34da9b523dff8be42e5e38e818c82fdb0bae774387a7248383604051611b649291906130e8565b60405180910390a250505b5b505050565b60008282604051602001611b8a929190612c4a565b60405160208183030381529060405280519060200120905092915050565b6000807f7fffffffffffffffffffffffffffffff5d576e7357a4501ddfe92f46681b20a08360001c1115611be3576000600391509150611cac565b601b8560ff1614158015611bfb5750601c8560ff1614155b15611c0d576000600491509150611cac565b600060018787878760405160008152602001604052604051611c329493929190612dcb565b6020604051602081039080840390855afa158015611c54573d6000803e3d6000fd5b505050602060405103519050600073ffffffffffffffffffffffffffffffffffffffff168173ffffffffffffffffffffffffffffffffffffffff161415611ca357600060019250925050611cac565b80600092509250505b94509492505050565b60006004811115611cef577f4e487b7100000000000000000000000000000000000000000000000000000000600052602160045260246000fd5b816004811115611d28577f4e487b7100000000000000000000000000000000000000000000000000000000600052602160045260246000fd5b1415611d3357612003565b60016004811115611d6d577f4e487b7100000000000000000000000000000000000000000000000000000000600052602160045260246000fd5b816004811115611da6577f4e487b7100000000000000000000000000000000000000000000000000000000600052602160045260246000fd5b1415611de7576040517f08c379a0000000000000000000000000000000000000000000000000000000008152600401611dde90612e32565b60405180910390fd5b60026004811115611e21577f4e487b7100000000000000000000000000000000000000000000000000000000600052602160045260246000fd5b816004811115611e5a577f4e487b7100000000000000000000000000000000000000000000000000000000600052602160045260246000fd5b1415611e9b576040517f08c379a0000000000000000000000000000000000000000000000000000000008152600401611e9290612eb2565b60405180910390fd5b60036004811115611ed5577f4e487b7100000000000000000000000000000000000000000000000000000000600052602160045260246000fd5b816004811115611f0e577f4e487b7100000000000000000000000000000000000000000000000000000000600052602160045260246000fd5b1415611f4f576040517f08c379a0000000000000000000000000000000000000000000000000000000008152600401611f4690612f72565b60405180910390fd5b600480811115611f88577f4e487b7100000000000000000000000000000000000000000000000000000000600052602160045260246000fd5b816004811115611fc1577f4e487b7100000000000000000000000000000000000000000000000000000000600052602160045260246000fd5b1415612002576040517f08c379a0000000000000000000000000000000000000000000000000000000008152600401611ff990612f92565b60405180910390fd5b5b50565b6001816000016000828254019250508190555050565b6120278383836124e1565b612042612033846106d7565b61203c846106d7565b8361197c565b505050565b600073ffffffffffffffffffffffffffffffffffffffff168273ffffffffffffffffffffffffffffffffffffffff1614156120b7576040517f08c379a00000000000000000000000000000000000000000000000000000000081526004016120ae90613092565b60405180910390fd5b6120c36000838361187a565b80600260008282546120d5919061316e565b92505081905550806000808473ffffffffffffffffffffffffffffffffffffffff1673ffffffffffffffffffffffffffffffffffffffff168152602001908152602001600020600082825461212a919061316e565b925050819055508173ffffffffffffffffffffffffffffffffffffffff16600073ffffffffffffffffffffffffffffffffffffffff167fddf252ad1be2c89b69c2b068fc378daa952ba7f163c4a11628f55a4df523b3ef8360405161218f91906130cd565b60405180910390a36121a36000838361187f565b5050565b60007bffffffffffffffffffffffffffffffffffffffffffffffffffffffff905090565b600081836121d9919061316e565b905092915050565b60008060008580549050905060008114612275578560018261220391906131f5565b8154811061223a577f4e487b7100000000000000000000000000000000000000000000000000000000600052603260045260246000fd5b9060005260206000200160000160049054906101000a90047bffffffffffffffffffffffffffffffffffffffffffffffffffffffff16612278565b60005b7bffffffffffffffffffffffffffffffffffffffffffffffffffffffff1692506122a683858763ffffffff16565b915060008111801561231f575043866001836122c291906131f5565b815481106122f9577f4e487b7100000000000000000000000000000000000000000000000000000000600052603260045260246000fd5b9060005260206000200160000160009054906101000a900463ffffffff1663ffffffff16145b156123d25761232d826124e6565b8660018361233b91906131f5565b81548110612372577f4e487b7100000000000000000000000000000000000000000000000000000000600052603260045260246000fd5b9060005260206000200160000160046101000a8154817bffffffffffffffffffffffffffffffffffffffffffffffffffffffff02191690837bffffffffffffffffffffffffffffffffffffffffffffffffffffffff1602179055506124c2565b8560405180604001604052806123e743611776565b63ffffffff1681526020016123fb856124e6565b7bffffffffffffffffffffffffffffffffffffffffffffffffffffffff168152509080600181540180825580915050600190039060005260206000200160009091909190915060008201518160000160006101000a81548163ffffffff021916908363ffffffff16021790555060208201518160000160046101000a8154817bffffffffffffffffffffffffffffffffffffffffffffffffffffffff02191690837bffffffffffffffffffffffffffffffffffffffffffffffffffffffff16021790555050505b50935093915050565b600081836124d991906131f5565b905092915050565b505050565b60007bffffffffffffffffffffffffffffffffffffffffffffffffffffffff8016821115612549576040517f08c379a000000000000000000000000000000000000000000000000000000000815260040161254090612ff2565b60405180910390fd5b819050919050565b6040518060400160405280600063ffffffff16815260200160007bffffffffffffffffffffffffffffffffffffffffffffffffffffffff1681525090565b60008135905061259e816138cc565b92915050565b6000813590506125b3816138e3565b92915050565b6000813590506125c8816138fa565b92915050565b6000813590506125dd81613911565b92915050565b6000813590506125f281613928565b92915050565b60006020828403121561260a57600080fd5b60006126188482850161258f565b91505092915050565b6000806040838503121561263457600080fd5b60006126428582860161258f565b92505060206126538582860161258f565b9150509250929050565b60008060006060848603121561267257600080fd5b60006126808682870161258f565b93505060206126918682870161258f565b92505060406126a2868287016125b9565b9150509250925092565b600080600080600080600060e0888a0312156126c757600080fd5b60006126d58a828b0161258f565b97505060206126e68a828b0161258f565b96505060406126f78a828b016125b9565b95505060606127088a828b016125b9565b94505060806127198a828b016125e3565b93505060a061272a8a828b016125a4565b92505060c061273b8a828b016125a4565b91505092959891949750929550565b6000806040838503121561275d57600080fd5b600061276b8582860161258f565b925050602061277c858286016125b9565b9150509250929050565b60008060008060008060c0878903121561279f57600080fd5b60006127ad89828a0161258f565b96505060206127be89828a016125b9565b95505060406127cf89828a016125b9565b94505060606127e089828a016125e3565b93505060806127f189828a016125a4565b92505060a061280289828a016125a4565b9150509295509295509295565b6000806040838503121561282257600080fd5b60006128308582860161258f565b9250506020612841858286016125ce565b9150509250929050565b60006020828403121561285d57600080fd5b600061286b848285016125b9565b91505092915050565b61287d81613229565b82525050565b61288c8161323b565b82525050565b61289b81613247565b82525050565b6128b26128ad82613247565b613325565b82525050565b60006128c382613147565b6128cd8185613152565b93506128dd8185602086016132c0565b6128e6816133bc565b840191505092915050565b60006128fe601883613152565b9150612909826133cd565b602082019050919050565b6000612921602383613152565b915061292c826133f6565b604082019050919050565b6000612944601f83613152565b915061294f82613445565b602082019050919050565b6000612967601d83613152565b91506129728261346e565b602082019050919050565b600061298a601f83613152565b915061299582613497565b602082019050919050565b60006129ad601983613152565b91506129b8826134c0565b602082019050919050565b60006129d0602283613152565b91506129db826134e9565b604082019050919050565b60006129f3600283613163565b91506129fe82613538565b600282019050919050565b6000612a16601d83613152565b9150612a2182613561565b602082019050919050565b6000612a39601d83613152565b9150612a448261358a565b602082019050919050565b6000612a5c602683613152565b9150612a67826135b3565b604082019050919050565b6000612a7f602283613152565b9150612a8a82613602565b604082019050919050565b6000612aa2602283613152565b9150612aad82613651565b604082019050919050565b6000612ac5601e83613152565b9150612ad0826136a0565b602082019050919050565b6000612ae8603083613152565b9150612af3826136c9565b604082019050919050565b6000612b0b602783613152565b9150612b1682613718565b604082019050919050565b6000612b2e602583613152565b9150612b3982613767565b604082019050919050565b6000612b51602683613152565b9150612b5c826137b6565b604082019050919050565b6000612b74602483613152565b9150612b7f82613805565b604082019050919050565b6000612b97602583613152565b9150612ba282613854565b604082019050919050565b6000612bba601f83613152565b9150612bc5826138a3565b602082019050919050565b604082016000820151612be66000850182612c1d565b506020820151612bf96020850182612bff565b50505050565b612c0881613271565b82525050565b612c1781613299565b82525050565b612c26816132a3565b82525050565b612c35816132a3565b82525050565b612c44816132b3565b82525050565b6000612c55826129e6565b9150612c6182856128a1565b602082019150612c7182846128a1565b6020820191508190509392505050565b6000602082019050612c966000830184612874565b92915050565b6000602082019050612cb16000830184612883565b92915050565b6000602082019050612ccc6000830184612892565b92915050565b600060c082019050612ce76000830189612892565b612cf46020830188612874565b612d016040830187612874565b612d0e6060830186612c0e565b612d1b6080830185612c0e565b612d2860a0830184612c0e565b979650505050505050565b6000608082019050612d486000830187612892565b612d556020830186612874565b612d626040830185612c0e565b612d6f6060830184612c0e565b95945050505050565b600060a082019050612d8d6000830188612892565b612d9a6020830187612892565b612da76040830186612892565b612db46060830185612c0e565b612dc16080830184612874565b9695505050505050565b6000608082019050612de06000830187612892565b612ded6020830186612c3b565b612dfa6040830185612892565b612e076060830184612892565b95945050505050565b60006020820190508181036000830152612e2a81846128b8565b905092915050565b60006020820190508181036000830152612e4b816128f1565b9050919050565b60006020820190508181036000830152612e6b81612914565b9050919050565b60006020820190508181036000830152612e8b81612937565b9050919050565b60006020820190508181036000830152612eab8161295a565b9050919050565b60006020820190508181036000830152612ecb8161297d565b9050919050565b60006020820190508181036000830152612eeb816129a0565b9050919050565b60006020820190508181036000830152612f0b816129c3565b9050919050565b60006020820190508181036000830152612f2b81612a09565b9050919050565b60006020820190508181036000830152612f4b81612a2c565b9050919050565b60006020820190508181036000830152612f6b81612a4f565b9050919050565b60006020820190508181036000830152612f8b81612a72565b9050919050565b60006020820190508181036000830152612fab81612a95565b9050919050565b60006020820190508181036000830152612fcb81612ab8565b9050919050565b60006020820190508181036000830152612feb81612adb565b9050919050565b6000602082019050818103600083015261300b81612afe565b9050919050565b6000602082019050818103600083015261302b81612b21565b9050919050565b6000602082019050818103600083015261304b81612b44565b9050919050565b6000602082019050818103600083015261306b81612b67565b9050919050565b6000602082019050818103600083015261308b81612b8a565b9050919050565b600060208201905081810360008301526130ab81612bad565b9050919050565b60006040820190506130c76000830184612bd0565b92915050565b60006020820190506130e26000830184612c0e565b92915050565b60006040820190506130fd6000830185612c0e565b61310a6020830184612c0e565b9392505050565b60006020820190506131266000830184612c2c565b92915050565b60006020820190506131416000830184612c3b565b92915050565b600081519050919050565b600082825260208201905092915050565b600081905092915050565b600061317982613299565b915061318483613299565b9250827fffffffffffffffffffffffffffffffffffffffffffffffffffffffffffffffff038211156131b9576131b861332f565b5b828201905092915050565b60006131cf82613299565b91506131da83613299565b9250826131ea576131e961335e565b5b828204905092915050565b600061320082613299565b915061320b83613299565b92508282101561321e5761321d61332f565b5b828203905092915050565b600061323482613251565b9050919050565b60008115159050919050565b6000819050919050565b600073ffffffffffffffffffffffffffffffffffffffff82169050919050565b60007bffffffffffffffffffffffffffffffffffffffffffffffffffffffff82169050919050565b6000819050919050565b600063ffffffff82169050919050565b600060ff82169050919050565b60005b838110156132de5780820151818401526020810190506132c3565b838111156132ed576000848401525b50505050565b6000600282049050600182168061330b57607f821691505b6020821081141561331f5761331e61338d565b5b50919050565b6000819050919050565b7f4e487b7100000000000000000000000000000000000000000000000000000000600052601160045260246000fd5b7f4e487b7100000000000000000000000000000000000000000000000000000000600052601260045260246000fd5b7f4e487b7100000000000000000000000000000000000000000000000000000000600052602260045260246000fd5b6000601f19601f8301169050919050565b7f45434453413a20696e76616c6964207369676e61747572650000000000000000600082015250565b7f45524332303a207472616e7366657220746f20746865207a65726f206164647260008201527f6573730000000000000000000000000000000000000000000000000000000000602082015250565b7f4552433230566f7465733a20626c6f636b206e6f7420796574206d696e656400600082015250565b7f4552433230566f7465733a207369676e61747572652065787069726564000000600082015250565b7f45434453413a20696e76616c6964207369676e6174757265206c656e67746800600082015250565b7f4552433230566f7465733a20696e76616c6964206e6f6e636500000000000000600082015250565b7f45524332303a20617070726f766520746f20746865207a65726f20616464726560008201527f7373000000000000000000000000000000000000000000000000000000000000602082015250565b7f1901000000000000000000000000000000000000000000000000000000000000600082015250565b7f45524332303a20696e73756666696369656e7420616c6c6f77616e6365000000600082015250565b7f45524332305065726d69743a206578706972656420646561646c696e65000000600082015250565b7f45524332303a207472616e7366657220616d6f756e742065786365656473206260008201527f616c616e63650000000000000000000000000000000000000000000000000000602082015250565b7f45434453413a20696e76616c6964207369676e6174757265202773272076616c60008201527f7565000000000000000000000000000000000000000000000000000000000000602082015250565b7f45434453413a20696e76616c6964207369676e6174757265202776272076616c60008201527f7565000000000000000000000000000000000000000000000000000000000000602082015250565b7f45524332305065726d69743a20696e76616c6964207369676e61747572650000600082015250565b7f4552433230566f7465733a20746f74616c20737570706c79207269736b73206f60008201527f766572666c6f77696e6720766f74657300000000000000000000000000000000602082015250565b7f53616665436173743a2076616c756520646f65736e27742066697420696e203260008201527f3234206269747300000000000000000000000000000000000000000000000000602082015250565b7f45524332303a207472616e736665722066726f6d20746865207a65726f20616460008201527f6472657373000000000000000000000000000000000000000000000000000000602082015250565b7f53616665436173743a2076616c756520646f65736e27742066697420696e203360008201527f3220626974730000000000000000000000000000000000000000000000000000602082015250565b7f45524332303a20617070726f76652066726f6d20746865207a65726f2061646460008201527f7265737300000000000000000000000000000000000000000000000000000000602082015250565b7f45524332303a2064656372656173656420616c6c6f77616e63652062656c6f7760008201527f207a65726f000000000000000000000000000000000000000000000000000000602082015250565b7f45524332303a206d696e7420746f20746865207a65726f206164647265737300600082015250565b6138d581613229565b81146138e057600080fd5b50565b6138ec81613247565b81146138f757600080fd5b50565b61390381613299565b811461390e57600080fd5b50565b61391a816132a3565b811461392557600080fd5b50565b613931816132b3565b811461393c57600080fd5b5056fea26469706673582212200f6bf13c0662e4c61c91b3951a38419cc9b38921a507ebfa1759b4a589dec2d964736f6c63430008040033",
  "linkReferences": {},
  "deployedLinkReferences": {}
}