{
  "_format": "hh-sol-artifact-1",
  "contractName": "VotePool",
  "sourceName": "contracts/VotePool.sol",
  "abi": [
    {
      "inputs": [
        {
          "internalType": "address",
          "name": "governor",
          "type": "address"
        },
        {
          "internalType": "address",
          "name": "govToken",
          "type": "address"
        },
        {
          "internalType": "uint8",
          "name": "support",
          "type": "uint8"
        },
        {
          "internalType": "uint256",
          "name": "proposalId",
          "type": "uint256"
        }
      ],
      "stateMutability": "nonpayable",
      "type": "constructor"
    },
    {
      "inputs": [],
      "name": "GovToken",
      "outputs": [
        {
          "internalType": "contract GovTokenMock",
          "name": "",
          "type": "address"
        }
      ],
      "stateMutability": "view",
      "type": "function"
    },
    {
      "inputs": [],
      "name": "Governor",
      "outputs": [
        {
          "internalType": "contract GovernorMock",
          "name": "",
          "type": "address"
        }
      ],
      "stateMutability": "view",
      "type": "function"
    },
    {
      "inputs": [],
      "name": "_proposalId",
      "outputs": [
        {
          "internalType": "uint256",
          "name": "",
          "type": "uint256"
        }
      ],
      "stateMutability": "view",
      "type": "function"
    },
    {
      "inputs": [],
      "name": "_support",
      "outputs": [
        {
          "internalType": "uint8",
          "name": "",
          "type": "uint8"
        }
      ],
      "stateMutability": "view",
      "type": "function"
    },
    {
      "inputs": [
        {
          "internalType": "address",
          "name": "recipient",
          "type": "address"
        },
        {
          "internalType": "uint256",
          "name": "value",
          "type": "uint256"
        }
      ],
      "name": "transfer",
      "outputs": [],
      "stateMutability": "nonpayable",
      "type": "function"
    },
    {
      "inputs": [],
      "name": "vote",
      "outputs": [],
      "stateMutability": "nonpayable",
      "type": "function"
    }
  ],
  "bytecode": "0x608060405234801561001057600080fd5b5060405161099a38038061099a8339818101604052810190610032919061015e565b336000806101000a81548173ffffffffffffffffffffffffffffffffffffffff021916908373ffffffffffffffffffffffffffffffffffffffff16021790555081600260146101000a81548160ff021916908360ff1602179055508060038190555083600260006101000a81548173ffffffffffffffffffffffffffffffffffffffff021916908373ffffffffffffffffffffffffffffffffffffffff16021790555082600160006101000a81548173ffffffffffffffffffffffffffffffffffffffff021916908373ffffffffffffffffffffffffffffffffffffffff1602179055505050505061024f565b60008151905061012e8161020a565b92915050565b60008151905061014381610221565b92915050565b60008151905061015881610238565b92915050565b6000806000806080858703121561017457600080fd5b60006101828782880161011f565b94505060206101938782880161011f565b93505060406101a487828801610149565b92505060606101b587828801610134565b91505092959194509250565b60006101cc826101d3565b9050919050565b600073ffffffffffffffffffffffffffffffffffffffff82169050919050565b6000819050919050565b600060ff82169050919050565b610213816101c1565b811461021e57600080fd5b50565b61022a816101f3565b811461023557600080fd5b50565b610241816101fd565b811461024c57600080fd5b50565b61073c8061025e6000396000f3fe608060405234801561001057600080fd5b50600436106100625760003560e01c80632453abda14610067578063632a9a5214610085578063644b902c1461008f57806364f402c9146100ad578063a9059cbb146100cb578063b91be52d146100e7575b600080fd5b61006f610105565b60405161007c91906105c5565b60405180910390f35b61008d61010b565b005b6100976102b3565b6040516100a49190610609565b60405180910390f35b6100b56102c6565b6040516100c291906105aa565b60405180910390f35b6100e560048036038101906100e09190610472565b6102ec565b005b6100ef6103f8565b6040516100fc919061058f565b60405180910390f35b60035481565b60008054906101000a900473ffffffffffffffffffffffffffffffffffffffff1673ffffffffffffffffffffffffffffffffffffffff163373ffffffffffffffffffffffffffffffffffffffff161461016357600080fd5b600160009054906101000a900473ffffffffffffffffffffffffffffffffffffffff1673ffffffffffffffffffffffffffffffffffffffff16635c19a95c306040518263ffffffff1660e01b81526004016101be919061054b565b600060405180830381600087803b1580156101d857600080fd5b505af11580156101ec573d6000803e3d6000fd5b50505050600260009054906101000a900473ffffffffffffffffffffffffffffffffffffffff1673ffffffffffffffffffffffffffffffffffffffff166356781388600354600260149054906101000a900460ff166040518363ffffffff1660e01b815260040161025e9291906105e0565b602060405180830381600087803b15801561027857600080fd5b505af115801561028c573d6000803e3d6000fd5b505050506040513d601f19601f820116820180604052508101906102b091906104d7565b50565b600260149054906101000a900460ff1681565b600260009054906101000a900473ffffffffffffffffffffffffffffffffffffffff1681565b60008054906101000a900473ffffffffffffffffffffffffffffffffffffffff1673ffffffffffffffffffffffffffffffffffffffff163373ffffffffffffffffffffffffffffffffffffffff161461034457600080fd5b600160009054906101000a900473ffffffffffffffffffffffffffffffffffffffff1673ffffffffffffffffffffffffffffffffffffffff1663a9059cbb83836040518363ffffffff1660e01b81526004016103a1929190610566565b602060405180830381600087803b1580156103bb57600080fd5b505af11580156103cf573d6000803e3d6000fd5b505050506040513d601f19601f820116820180604052508101906103f391906104ae565b505050565b600160009054906101000a900473ffffffffffffffffffffffffffffffffffffffff1681565b60008135905061042d816106c1565b92915050565b600081519050610442816106d8565b92915050565b600081359050610457816106ef565b92915050565b60008151905061046c816106ef565b92915050565b6000806040838503121561048557600080fd5b60006104938582860161041e565b92505060206104a485828601610448565b9150509250929050565b6000602082840312156104c057600080fd5b60006104ce84828501610433565b91505092915050565b6000602082840312156104e957600080fd5b60006104f78482850161045d565b91505092915050565b61050981610624565b82525050565b61051881610679565b82525050565b6105278161069d565b82525050565b61053681610662565b82525050565b6105458161066c565b82525050565b60006020820190506105606000830184610500565b92915050565b600060408201905061057b6000830185610500565b610588602083018461052d565b9392505050565b60006020820190506105a4600083018461050f565b92915050565b60006020820190506105bf600083018461051e565b92915050565b60006020820190506105da600083018461052d565b92915050565b60006040820190506105f5600083018561052d565b610602602083018461053c565b9392505050565b600060208201905061061e600083018461053c565b92915050565b600061062f82610642565b9050919050565b60008115159050919050565b600073ffffffffffffffffffffffffffffffffffffffff82169050919050565b6000819050919050565b600060ff82169050919050565b60006106848261068b565b9050919050565b600061069682610642565b9050919050565b60006106a8826106af565b9050919050565b60006106ba82610642565b9050919050565b6106ca81610624565b81146106d557600080fd5b50565b6106e181610636565b81146106ec57600080fd5b50565b6106f881610662565b811461070357600080fd5b5056fea26469706673582212206cf7b561c040d41836a34cc6e2683182692e9fbb19770419a538cb7c2a972ba364736f6c63430008040033",
  "linkReferences": {},
  "deployedLinkReferences": {}
}