{
  "_format": "hh-sol-artifact-1",
  "contractName": "Staking",
  "sourceName": "contracts/staking.sol",
  "abi": [
    {
      "inputs": [],
      "stateMutability": "payable",
      "type": "constructor"
    },
    {
      "inputs": [
        {
          "internalType": "uint256",
          "name": "positionId",
          "type": "uint256"
        },
        {
          "internalType": "uint256",
          "name": "newUnlockDate",
          "type": "uint256"
        }
      ],
      "name": "changeUnlockDate",
      "outputs": [],
      "stateMutability": "nonpayable",
      "type": "function"
    },
    {
      "inputs": [
        {
          "internalType": "uint256",
          "name": "positionId",
          "type": "uint256"
        }
      ],
      "name": "closePosition",
      "outputs": [],
      "stateMutability": "nonpayable",
      "type": "function"
    },
    {
      "inputs": [],
      "name": "currentPositionId",
      "outputs": [
        {
          "internalType": "uint256",
          "name": "",
          "type": "uint256"
        }
      ],
      "stateMutability": "view",
      "type": "function"
    },
    {
      "inputs": [
        {
          "internalType": "uint256",
          "name": "numDays",
          "type": "uint256"
        }
      ],
      "name": "getInterestRate",
      "outputs": [
        {
          "internalType": "uint256",
          "name": "",
          "type": "uint256"
        }
      ],
      "stateMutability": "view",
      "type": "function"
    },
    {
      "inputs": [],
      "name": "getLockPeriod",
      "outputs": [
        {
          "internalType": "uint256[]",
          "name": "",
          "type": "uint256[]"
        }
      ],
      "stateMutability": "view",
      "type": "function"
    },
    {
      "inputs": [
        {
          "internalType": "uint256",
          "name": "positionId",
          "type": "uint256"
        }
      ],
      "name": "getPositionById",
      "outputs": [
        {
          "components": [
            {
              "internalType": "uint256",
              "name": "positionId",
              "type": "uint256"
            },
            {
              "internalType": "address",
              "name": "walletAddress",
              "type": "address"
            },
            {
              "internalType": "uint256",
              "name": "createdDate",
              "type": "uint256"
            },
            {
              "internalType": "uint256",
              "name": "unlockDate",
              "type": "uint256"
            },
            {
              "internalType": "uint256",
              "name": "percentInterest",
              "type": "uint256"
            },
            {
              "internalType": "uint256",
              "name": "plegWeiStaked",
              "type": "uint256"
            },
            {
              "internalType": "uint256",
              "name": "plegInterest",
              "type": "uint256"
            },
            {
              "internalType": "bool",
              "name": "open",
              "type": "bool"
            }
          ],
          "internalType": "struct Staking.Position",
          "name": "",
          "type": "tuple"
        }
      ],
      "stateMutability": "view",
      "type": "function"
    },
    {
      "inputs": [
        {
          "internalType": "address",
          "name": "walletAddress",
          "type": "address"
        }
      ],
      "name": "getPositoinIdsForAddress",
      "outputs": [
        {
          "internalType": "uint256[]",
          "name": "",
          "type": "uint256[]"
        }
      ],
      "stateMutability": "view",
      "type": "function"
    },
    {
      "inputs": [
        {
          "internalType": "uint256",
          "name": "",
          "type": "uint256"
        }
      ],
      "name": "lockPeriods",
      "outputs": [
        {
          "internalType": "uint256",
          "name": "",
          "type": "uint256"
        }
      ],
      "stateMutability": "view",
      "type": "function"
    },
    {
      "inputs": [
        {
          "internalType": "uint256",
          "name": "numDays",
          "type": "uint256"
        },
        {
          "internalType": "uint256",
          "name": "basisPoints",
          "type": "uint256"
        }
      ],
      "name": "modifyLockPeriods",
      "outputs": [],
      "stateMutability": "nonpayable",
      "type": "function"
    },
    {
      "inputs": [],
      "name": "owner",
      "outputs": [
        {
          "internalType": "address",
          "name": "",
          "type": "address"
        }
      ],
      "stateMutability": "view",
      "type": "function"
    },
    {
      "inputs": [
        {
          "internalType": "address",
          "name": "",
          "type": "address"
        },
        {
          "internalType": "uint256",
          "name": "",
          "type": "uint256"
        }
      ],
      "name": "positionIdsByAddress",
      "outputs": [
        {
          "internalType": "uint256",
          "name": "",
          "type": "uint256"
        }
      ],
      "stateMutability": "view",
      "type": "function"
    },
    {
      "inputs": [
        {
          "internalType": "uint256",
          "name": "",
          "type": "uint256"
        }
      ],
      "name": "positions",
      "outputs": [
        {
          "internalType": "uint256",
          "name": "positionId",
          "type": "uint256"
        },
        {
          "internalType": "address",
          "name": "walletAddress",
          "type": "address"
        },
        {
          "internalType": "uint256",
          "name": "createdDate",
          "type": "uint256"
        },
        {
          "internalType": "uint256",
          "name": "unlockDate",
          "type": "uint256"
        },
        {
          "internalType": "uint256",
          "name": "percentInterest",
          "type": "uint256"
        },
        {
          "internalType": "uint256",
          "name": "plegWeiStaked",
          "type": "uint256"
        },
        {
          "internalType": "uint256",
          "name": "plegInterest",
          "type": "uint256"
        },
        {
          "internalType": "bool",
          "name": "open",
          "type": "bool"
        }
      ],
      "stateMutability": "view",
      "type": "function"
    },
    {
      "inputs": [
        {
          "internalType": "uint256",
          "name": "numDays",
          "type": "uint256"
        }
      ],
      "name": "stakePleg",
      "outputs": [],
      "stateMutability": "payable",
      "type": "function"
    },
    {
      "inputs": [
        {
          "internalType": "uint256",
          "name": "",
          "type": "uint256"
        }
      ],
      "name": "tiers",
      "outputs": [
        {
          "internalType": "uint256",
          "name": "",
          "type": "uint256"
        }
      ],
      "stateMutability": "view",
      "type": "function"
    }
  ],
  "bytecode": "0x6080604052336000806101000a81548173ffffffffffffffffffffffffffffffffffffffff021916908373ffffffffffffffffffffffffffffffffffffffff16021790555060006009819055506102bc600c6000601e8152602001908152602001600020819055506103e8600c6000605a8152602001908152602001600020819055506104b0600c600060b4815260200190815260200160002081905550600d601e9080600181540180825580915050600190039060005260206000200160009091909190915055600d605a9080600181540180825580915050600190039060005260206000200160009091909190915055600d60b490806001815401808255809150506001900390600052602060002001600090919091909150556116058061012a6000396000f3fe6080604052600436106100dd5760003560e01c80638da5cb5b1161007f578063b0f0475b11610059578063b0f0475b146102f2578063b838ec861461031b578063c7c9d05514610358578063e43db19314610381576100dd565b80638da5cb5b1461025a57806399fbab8814610285578063a126d601146102c9576100dd565b80632a89ec13116100bb5780632a89ec131461018757806345eae373146101a35780634c8f2a78146101e0578063831808161461021d576100dd565b8063039af9eb146100e25780630c196a741461011f5780631131c8cd1461015c575b600080fd5b3480156100ee57600080fd5b5061010960048036038101906101049190610dea565b6103ac565b60405161011691906111a1565b60405180910390f35b34801561012b57600080fd5b5061014660048036038101906101419190610dea565b6103c4565b60405161015391906111a1565b60405180910390f35b34801561016857600080fd5b506101716103e1565b60405161017e91906111a1565b60405180910390f35b6101a1600480360381019061019c9190610dea565b6103e7565b005b3480156101af57600080fd5b506101ca60048036038101906101c59190610dae565b610619565b6040516101d791906111a1565b60405180910390f35b3480156101ec57600080fd5b5061020760048036038101906102029190610dea565b61064a565b60405161021491906111a1565b60405180910390f35b34801561022957600080fd5b50610244600480360381019061023f9190610d85565b61066e565b60405161025191906110c3565b60405180910390f35b34801561026657600080fd5b5061026f610705565b60405161027c91906110a8565b60405180910390f35b34801561029157600080fd5b506102ac60048036038101906102a79190610dea565b610729565b6040516102c09897969594939291906111bc565b60405180910390f35b3480156102d557600080fd5b506102f060048036038101906102eb9190610dea565b61079e565b005b3480156102fe57600080fd5b5061031960048036038101906103149190610e13565b610a27565b005b34801561032757600080fd5b50610342600480360381019061033d9190610dea565b610afa565b60405161034f9190611185565b60405180910390f35b34801561036457600080fd5b5061037f600480360381019061037a9190610e13565b610bd5565b005b34801561038d57600080fd5b50610396610c82565b6040516103a391906110c3565b60405180910390f35b600c6020528060005260406000206000915090505481565b6000600c6000838152602001908152602001600020549050919050565b60095481565b6000600c6000838152602001908152602001600020541161043d576040517f08c379a000000000000000000000000000000000000000000000000000000000815260040161043490611105565b60405180910390fd5b60405180610100016040528060095481526020013373ffffffffffffffffffffffffffffffffffffffff16815260200142815260200162015180836104829190611316565b4261048d919061128f565b8152602001600c60008481526020019081526020016000205481526020013481526020016104cf600c6000858152602001908152602001600020548434610cda565b815260200160011515815250600a600060095481526020019081526020016000206000820151816000015560208201518160010160006101000a81548173ffffffffffffffffffffffffffffffffffffffff021916908373ffffffffffffffffffffffffffffffffffffffff16021790555060408201518160020155606082015181600301556080820151816004015560a0820151816005015560c0820151816006015560e08201518160070160006101000a81548160ff021916908315150217905550905050600b60003373ffffffffffffffffffffffffffffffffffffffff1673ffffffffffffffffffffffffffffffffffffffff168152602001908152602001600020600954908060018154018082558091505060019003906000526020600020016000909190919091505560096000815480929190610611906113b8565b919050555050565b600b602052816000526040600020818154811061063557600080fd5b90600052602060002001600091509150505481565b600d818154811061065a57600080fd5b906000526020600020016000915090505481565b6060600b60008373ffffffffffffffffffffffffffffffffffffffff1673ffffffffffffffffffffffffffffffffffffffff1681526020019081526020016000208054806020026020016040519081016040528092919081815260200182805480156106f957602002820191906000526020600020905b8154815260200190600101908083116106e5575b50505050509050919050565b60008054906101000a900473ffffffffffffffffffffffffffffffffffffffff1681565b600a6020528060005260406000206000915090508060000154908060010160009054906101000a900473ffffffffffffffffffffffffffffffffffffffff16908060020154908060030154908060040154908060050154908060060154908060070160009054906101000a900460ff16905088565b3373ffffffffffffffffffffffffffffffffffffffff16600a600083815260200190815260200160002060010160009054906101000a900473ffffffffffffffffffffffffffffffffffffffff1673ffffffffffffffffffffffffffffffffffffffff1614610842576040517f08c379a000000000000000000000000000000000000000000000000000000000815260040161083990611125565b60405180910390fd5b60011515600a600083815260200190815260200160002060070160009054906101000a900460ff161515146108ac576040517f08c379a00000000000000000000000000000000000000000000000000000000081526004016108a390611145565b60405180910390fd5b6000600a600083815260200190815260200160002060070160006101000a81548160ff021916908315150217905550600a6000828152602001908152602001600020600301544211156109a4576000600a600083815260200190815260200160002060060154600a600084815260200190815260200160002060050154610933919061128f565b90503373ffffffffffffffffffffffffffffffffffffffff168160405161095990611093565b60006040518083038185875af1925050503d8060008114610996576040519150601f19603f3d011682016040523d82523d6000602084013e61099b565b606091505b50505050610a24565b3373ffffffffffffffffffffffffffffffffffffffff16600a6000838152602001908152602001600020600501546040516109de90611093565b60006040518083038185875af1925050503d8060008114610a1b576040519150601f19603f3d011682016040523d82523d6000602084013e610a20565b606091505b5050505b50565b3373ffffffffffffffffffffffffffffffffffffffff1660008054906101000a900473ffffffffffffffffffffffffffffffffffffffff1673ffffffffffffffffffffffffffffffffffffffff1614610ab5576040517f08c379a0000000000000000000000000000000000000000000000000000000008152600401610aac906110e5565b60405180910390fd5b80600c600084815260200190815260200160002081905550600d8290806001815401808255809150506001900390600052602060002001600090919091909150555050565b610b02610cfe565b600a600083815260200190815260200160002060405180610100016040529081600082015481526020016001820160009054906101000a900473ffffffffffffffffffffffffffffffffffffffff1673ffffffffffffffffffffffffffffffffffffffff1673ffffffffffffffffffffffffffffffffffffffff16815260200160028201548152602001600382015481526020016004820154815260200160058201548152602001600682015481526020016007820160009054906101000a900460ff1615151515815250509050919050565b3373ffffffffffffffffffffffffffffffffffffffff1660008054906101000a900473ffffffffffffffffffffffffffffffffffffffff1673ffffffffffffffffffffffffffffffffffffffff1614610c63576040517f08c379a0000000000000000000000000000000000000000000000000000000008152600401610c5a90611165565b60405180910390fd5b80600a6000848152602001908152602001600020600301819055505050565b6060600d805480602002602001604051908101604052809291908181526020018280548015610cd057602002820191906000526020600020905b815481526020019060010190808311610cbc575b5050505050905090565b60006127108285610ceb9190611316565b610cf591906112e5565b90509392505050565b60405180610100016040528060008152602001600073ffffffffffffffffffffffffffffffffffffffff16815260200160008152602001600081526020016000815260200160008152602001600081526020016000151581525090565b600081359050610d6a816115a1565b92915050565b600081359050610d7f816115b8565b92915050565b600060208284031215610d9757600080fd5b6000610da584828501610d5b565b91505092915050565b60008060408385031215610dc157600080fd5b6000610dcf85828601610d5b565b9250506020610de085828601610d70565b9150509250929050565b600060208284031215610dfc57600080fd5b6000610e0a84828501610d70565b91505092915050565b60008060408385031215610e2657600080fd5b6000610e3485828601610d70565b9250506020610e4585828601610d70565b9150509250929050565b6000610e5b8383611075565b60208301905092915050565b610e7081611370565b82525050565b610e7f81611370565b82525050565b6000610e908261124a565b610e9a8185611262565b9350610ea58361123a565b8060005b83811015610ed6578151610ebd8882610e4f565b9750610ec883611255565b925050600181019050610ea9565b5085935050505092915050565b610eec81611382565b82525050565b610efb81611382565b82525050565b6000610f0e60258361127e565b9150610f198261145f565b604082019050919050565b6000610f3160118361127e565b9150610f3c826114ae565b602082019050919050565b6000610f5460298361127e565b9150610f5f826114d7565b604082019050919050565b6000610f7760128361127e565b9150610f8282611526565b602082019050919050565b6000610f9a60228361127e565b9150610fa58261154f565b604082019050919050565b6000610fbd600083611273565b9150610fc88261159e565b600082019050919050565b61010082016000820151610fea6000850182611075565b506020820151610ffd6020850182610e67565b5060408201516110106040850182611075565b5060608201516110236060850182611075565b5060808201516110366080850182611075565b5060a082015161104960a0850182611075565b5060c082015161105c60c0850182611075565b5060e082015161106f60e0850182610ee3565b50505050565b61107e816113ae565b82525050565b61108d816113ae565b82525050565b600061109e82610fb0565b9150819050919050565b60006020820190506110bd6000830184610e76565b92915050565b600060208201905081810360008301526110dd8184610e85565b905092915050565b600060208201905081810360008301526110fe81610f01565b9050919050565b6000602082019050818103600083015261111e81610f24565b9050919050565b6000602082019050818103600083015261113e81610f47565b9050919050565b6000602082019050818103600083015261115e81610f6a565b9050919050565b6000602082019050818103600083015261117e81610f8d565b9050919050565b60006101008201905061119b6000830184610fd3565b92915050565b60006020820190506111b66000830184611084565b92915050565b6000610100820190506111d2600083018b611084565b6111df602083018a610e76565b6111ec6040830189611084565b6111f96060830188611084565b6112066080830187611084565b61121360a0830186611084565b61122060c0830185611084565b61122d60e0830184610ef2565b9998505050505050505050565b6000819050602082019050919050565b600081519050919050565b6000602082019050919050565b600082825260208201905092915050565b600081905092915050565b600082825260208201905092915050565b600061129a826113ae565b91506112a5836113ae565b9250827fffffffffffffffffffffffffffffffffffffffffffffffffffffffffffffffff038211156112da576112d9611401565b5b828201905092915050565b60006112f0826113ae565b91506112fb836113ae565b92508261130b5761130a611430565b5b828204905092915050565b6000611321826113ae565b915061132c836113ae565b9250817fffffffffffffffffffffffffffffffffffffffffffffffffffffffffffffffff048311821515161561136557611364611401565b5b828202905092915050565b600061137b8261138e565b9050919050565b60008115159050919050565b600073ffffffffffffffffffffffffffffffffffffffff82169050919050565b6000819050919050565b60006113c3826113ae565b91507fffffffffffffffffffffffffffffffffffffffffffffffffffffffffffffffff8214156113f6576113f5611401565b5b600182019050919050565b7f4e487b7100000000000000000000000000000000000000000000000000000000600052601160045260246000fd5b7f4e487b7100000000000000000000000000000000000000000000000000000000600052601260045260246000fd5b7f4f6e6c79206f776e6572206d6179206d6f64696679207374616b696e6720706560008201527f72696f6473000000000000000000000000000000000000000000000000000000602082015250565b7f4d617070696e67206e6f7420666f756e64000000000000000000000000000000600082015250565b7f4f6e6c7920706f736974696f6e2063726561746f72206d6179206d6f6469667960008201527f20706f736974696f6e0000000000000000000000000000000000000000000000602082015250565b7f506f736974696f6e20697320636c6f7365640000000000000000000000000000600082015250565b7f4f6e6c79206f776e6572206d6179206d6f6469667920756e6c6f636b2064617460008201527f6573000000000000000000000000000000000000000000000000000000000000602082015250565b50565b6115aa81611370565b81146115b557600080fd5b50565b6115c1816113ae565b81146115cc57600080fd5b5056fea26469706673582212202c9871a33f122b6082576f93ee547a025df0d7685583c634e25f5ed1521b67a264736f6c63430008040033",
  "linkReferences": {},
  "deployedLinkReferences": {}
}