{
  "_format": "hh-sol-artifact-1",
  "contractName": "Staking",
  "sourceName": "contracts/staking.sol",
  "abi": [
    {
      "inputs": [
        {
          "internalType": "address",
          "name": "_govTokenAddress",
          "type": "address"
        },
        {
          "internalType": "address",
          "name": "_govContractAddress",
          "type": "address"
        },
        {
          "internalType": "uint256",
          "name": "_proposalId",
          "type": "uint256"
        }
      ],
      "stateMutability": "payable",
      "type": "constructor"
    },
    {
      "inputs": [
        {
          "internalType": "uint256",
          "name": "positionId",
          "type": "uint256"
        }
      ],
      "name": "closePosition",
      "outputs": [],
      "stateMutability": "nonpayable",
      "type": "function"
    },
    {
      "inputs": [],
      "name": "currentPositionId",
      "outputs": [
        {
          "internalType": "uint256",
          "name": "",
          "type": "uint256"
        }
      ],
      "stateMutability": "view",
      "type": "function"
    },
    {
      "inputs": [
        {
          "internalType": "uint256",
          "name": "positionId",
          "type": "uint256"
        }
      ],
      "name": "getPositionById",
      "outputs": [
        {
          "components": [
            {
              "internalType": "uint256",
              "name": "positionId",
              "type": "uint256"
            },
            {
              "internalType": "address",
              "name": "walletAddress",
              "type": "address"
            },
            {
              "internalType": "uint256",
              "name": "amount",
              "type": "uint256"
            },
            {
              "internalType": "uint256",
              "name": "support",
              "type": "uint256"
            },
            {
              "internalType": "bool",
              "name": "open",
              "type": "bool"
            }
          ],
          "internalType": "struct Staking.Position",
          "name": "",
          "type": "tuple"
        }
      ],
      "stateMutability": "view",
      "type": "function"
    },
    {
      "inputs": [
        {
          "internalType": "address",
          "name": "walletAddress",
          "type": "address"
        }
      ],
      "name": "getPositoinIdsForAddress",
      "outputs": [
        {
          "internalType": "uint256[]",
          "name": "",
          "type": "uint256[]"
        }
      ],
      "stateMutability": "view",
      "type": "function"
    },
    {
      "inputs": [],
      "name": "govContractAddress",
      "outputs": [
        {
          "internalType": "address",
          "name": "",
          "type": "address"
        }
      ],
      "stateMutability": "view",
      "type": "function"
    },
    {
      "inputs": [],
      "name": "govToken",
      "outputs": [
        {
          "internalType": "contract GovTokenMock",
          "name": "",
          "type": "address"
        }
      ],
      "stateMutability": "view",
      "type": "function"
    },
    {
      "inputs": [],
      "name": "govTokenAddress",
      "outputs": [
        {
          "internalType": "address",
          "name": "",
          "type": "address"
        }
      ],
      "stateMutability": "view",
      "type": "function"
    },
    {
      "inputs": [],
      "name": "governor",
      "outputs": [
        {
          "internalType": "contract GovernorMock",
          "name": "",
          "type": "address"
        }
      ],
      "stateMutability": "view",
      "type": "function"
    },
    {
      "inputs": [],
      "name": "marketSettled",
      "outputs": [
        {
          "internalType": "bool",
          "name": "",
          "type": "bool"
        }
      ],
      "stateMutability": "view",
      "type": "function"
    },
    {
      "inputs": [],
      "name": "owner",
      "outputs": [
        {
          "internalType": "address",
          "name": "",
          "type": "address"
        }
      ],
      "stateMutability": "view",
      "type": "function"
    },
    {
      "inputs": [
        {
          "internalType": "address",
          "name": "",
          "type": "address"
        },
        {
          "internalType": "uint256",
          "name": "",
          "type": "uint256"
        }
      ],
      "name": "positionIdsByAddress",
      "outputs": [
        {
          "internalType": "uint256",
          "name": "",
          "type": "uint256"
        }
      ],
      "stateMutability": "view",
      "type": "function"
    },
    {
      "inputs": [
        {
          "internalType": "uint256",
          "name": "",
          "type": "uint256"
        }
      ],
      "name": "positions",
      "outputs": [
        {
          "internalType": "uint256",
          "name": "positionId",
          "type": "uint256"
        },
        {
          "internalType": "address",
          "name": "walletAddress",
          "type": "address"
        },
        {
          "internalType": "uint256",
          "name": "amount",
          "type": "uint256"
        },
        {
          "internalType": "uint256",
          "name": "support",
          "type": "uint256"
        },
        {
          "internalType": "bool",
          "name": "open",
          "type": "bool"
        }
      ],
      "stateMutability": "view",
      "type": "function"
    },
    {
      "inputs": [],
      "name": "proposalId",
      "outputs": [
        {
          "internalType": "uint256",
          "name": "",
          "type": "uint256"
        }
      ],
      "stateMutability": "view",
      "type": "function"
    },
    {
      "inputs": [],
      "name": "settleMarket",
      "outputs": [],
      "stateMutability": "nonpayable",
      "type": "function"
    },
    {
      "inputs": [
        {
          "internalType": "uint256",
          "name": "amount",
          "type": "uint256"
        },
        {
          "internalType": "uint8",
          "name": "support",
          "type": "uint8"
        }
      ],
      "name": "stakeVote",
      "outputs": [],
      "stateMutability": "payable",
      "type": "function"
    },
    {
      "inputs": [],
      "name": "totalNo",
      "outputs": [
        {
          "internalType": "uint256",
          "name": "",
          "type": "uint256"
        }
      ],
      "stateMutability": "view",
      "type": "function"
    },
    {
      "inputs": [],
      "name": "totalYes",
      "outputs": [
        {
          "internalType": "uint256",
          "name": "",
          "type": "uint256"
        }
      ],
      "stateMutability": "view",
      "type": "function"
    }
  ],
  "bytecode": "0x60806040526040516200251b3803806200251b8339818101604052810190620000299190620001de565b82600760006101000a81548173ffffffffffffffffffffffffffffffffffffffff021916908373ffffffffffffffffffffffffffffffffffffffff16021790555081600860006101000a81548173ffffffffffffffffffffffffffffffffffffffff021916908373ffffffffffffffffffffffffffffffffffffffff16021790555082600960006101000a81548173ffffffffffffffffffffffffffffffffffffffff021916908373ffffffffffffffffffffffffffffffffffffffff16021790555081600a60006101000a81548173ffffffffffffffffffffffffffffffffffffffff021916908373ffffffffffffffffffffffffffffffffffffffff16021790555080600b81905550336000806101000a81548173ffffffffffffffffffffffffffffffffffffffff021916908373ffffffffffffffffffffffffffffffffffffffff16021790555060006006819055506000600c60006101000a81548160ff0219169083151502179055506000600e819055506000600d81905550505050620002a6565b600081519050620001c18162000272565b92915050565b600081519050620001d8816200028c565b92915050565b600080600060608486031215620001f457600080fd5b60006200020486828701620001b0565b93505060206200021786828701620001b0565b92505060406200022a86828701620001c7565b9150509250925092565b6000620002418262000248565b9050919050565b600073ffffffffffffffffffffffffffffffffffffffff82169050919050565b6000819050919050565b6200027d8162000234565b81146200028957600080fd5b50565b620002978162000268565b8114620002a357600080fd5b50565b61226580620002b66000396000f3fe6080604052600436106100fe5760003560e01c806385970c661161009557806399fbab881161006457806399fbab8814610308578063a126d60114610349578063af00888314610372578063b3e7485b1461039d578063b838ec86146103c8576100fe565b806385970c661461027f57806388ba8dd6146102965780638da5cb5b146102c15780639629fb1c146102ec576100fe565b806345eae373116100d157806345eae373146101af5780634a3b00a6146101ec5780636e77609e146102175780638318081614610242576100fe565b806305268cff146101035780630c340a241461012e5780631131c8cd146101595780632dfca44514610184575b600080fd5b34801561010f57600080fd5b50610118610405565b6040516101259190611bc5565b60405180910390f35b34801561013a57600080fd5b5061014361042b565b6040516101509190611be0565b60405180910390f35b34801561016557600080fd5b5061016e610451565b60405161017b9190611d06565b60405180910390f35b34801561019057600080fd5b50610199610457565b6040516101a69190611d06565b60405180910390f35b3480156101bb57600080fd5b506101d660048036038101906101d19190611781565b61045d565b6040516101e39190611d06565b60405180910390f35b3480156101f857600080fd5b5061020161048e565b60405161020e9190611b0d565b60405180910390f35b34801561022357600080fd5b5061022c6104b4565b6040516102399190611baa565b60405180910390f35b34801561024e57600080fd5b5061026960048036038101906102649190611758565b6104c7565b6040516102769190611b88565b60405180910390f35b34801561028b57600080fd5b5061029461055e565b005b3480156102a257600080fd5b506102ab6106a8565b6040516102b89190611d06565b60405180910390f35b3480156102cd57600080fd5b506102d66106ae565b6040516102e39190611b0d565b60405180910390f35b61030660048036038101906103019190611861565b6106d2565b005b34801561031457600080fd5b5061032f600480360381019061032a919061180f565b610ef1565b604051610340959493929190611d21565b60405180910390f35b34801561035557600080fd5b50610370600480360381019061036b919061180f565b610f54565b005b34801561037e57600080fd5b506103876114a3565b6040516103949190611d06565b60405180910390f35b3480156103a957600080fd5b506103b26114a9565b6040516103bf9190611b0d565b60405180910390f35b3480156103d457600080fd5b506103ef60048036038101906103ea919061180f565b6114cf565b6040516103fc9190611ceb565b60405180910390f35b600960009054906101000a900473ffffffffffffffffffffffffffffffffffffffff1681565b600a60009054906101000a900473ffffffffffffffffffffffffffffffffffffffff1681565b60065481565b600b5481565b6010602052816000526040600020818154811061047957600080fd5b90600052602060002001600091509150505481565b600760009054906101000a900473ffffffffffffffffffffffffffffffffffffffff1681565b600c60009054906101000a900460ff1681565b6060601060008373ffffffffffffffffffffffffffffffffffffffff1673ffffffffffffffffffffffffffffffffffffffff16815260200190815260200160002080548060200260200160405190810160405280929190818152602001828054801561055257602002820191906000526020600020905b81548152602001906001019080831161053e575b50505050509050919050565b60001515600c60009054906101000a900460ff1615151461057e57600080fd5b6000600a60009054906101000a900473ffffffffffffffffffffffffffffffffffffffff1673ffffffffffffffffffffffffffffffffffffffff16633e4f49e6600b546040518263ffffffff1660e01b81526004016105dd9190611d06565b60206040518083038186803b1580156105f557600080fd5b505afa158015610609573d6000803e3d6000fd5b505050506040513d601f19601f8201168201806040525081019061062d91906117e6565b6007811115610665577f4e487b7100000000000000000000000000000000000000000000000000000000600052602160045260246000fd5b905060028114806106765750600481145b806106815750600781145b61068a57600080fd5b6001600c60006101000a81548160ff02191690831515021790555050565b600d5481565b60008054906101000a900473ffffffffffffffffffffffffffffffffffffffff1681565b60018160ff1614806106e7575060008160ff16145b610726576040517f08c379a000000000000000000000000000000000000000000000000000000000815260040161071d90611c6b565b60405180910390fd5b81600960009054906101000a900473ffffffffffffffffffffffffffffffffffffffff1673ffffffffffffffffffffffffffffffffffffffff1663dd62ed3e33306040518363ffffffff1660e01b8152600401610784929190611b28565b60206040518083038186803b15801561079c57600080fd5b505afa1580156107b0573d6000803e3d6000fd5b505050506040513d601f19601f820116820180604052508101906107d49190611838565b1015610815576040517f08c379a000000000000000000000000000000000000000000000000000000000815260040161080c90611cab565b60405180910390fd5b6109386040518060400160405280601281526020017f70726f706f73616c2073746174653a2025730000000000000000000000000000815250600a60009054906101000a900473ffffffffffffffffffffffffffffffffffffffff1673ffffffffffffffffffffffffffffffffffffffff16633e4f49e6600b546040518263ffffffff1660e01b81526004016108ab9190611d06565b60206040518083038186803b1580156108c357600080fd5b505afa1580156108d7573d6000803e3d6000fd5b505050506040513d601f19601f820116820180604052508101906108fb91906117e6565b6007811115610933577f4e487b7100000000000000000000000000000000000000000000000000000000600052602160045260246000fd5b61158b565b6001600a60009054906101000a900473ffffffffffffffffffffffffffffffffffffffff1673ffffffffffffffffffffffffffffffffffffffff16633e4f49e6600b546040518263ffffffff1660e01b81526004016109979190611d06565b60206040518083038186803b1580156109af57600080fd5b505afa1580156109c3573d6000803e3d6000fd5b505050506040513d601f19601f820116820180604052508101906109e791906117e6565b6007811115610a1f577f4e487b7100000000000000000000000000000000000000000000000000000000600052602160045260246000fd5b1480610b0f57506000600a60009054906101000a900473ffffffffffffffffffffffffffffffffffffffff1673ffffffffffffffffffffffffffffffffffffffff16633e4f49e6600b546040518263ffffffff1660e01b8152600401610a859190611d06565b60206040518083038186803b158015610a9d57600080fd5b505afa158015610ab1573d6000803e3d6000fd5b505050506040513d601f19601f82011682018060405250810190610ad591906117e6565b6007811115610b0d577f4e487b7100000000000000000000000000000000000000000000000000000000600052602160045260246000fd5b145b610b4e576040517f08c379a0000000000000000000000000000000000000000000000000000000008152600401610b4590611c2b565b60405180910390fd5b6040518060a0016040528060065481526020013373ffffffffffffffffffffffffffffffffffffffff1681526020018381526020018260ff16815260200160011515815250600f600060065481526020019081526020016000206000820151816000015560208201518160010160006101000a81548173ffffffffffffffffffffffffffffffffffffffff021916908373ffffffffffffffffffffffffffffffffffffffff160217905550604082015181600201556060820151816003015560808201518160040160006101000a81548160ff021916908315150217905550905050601060003373ffffffffffffffffffffffffffffffffffffffff1673ffffffffffffffffffffffffffffffffffffffff168152602001908152602001600020600654908060018154018082558091505060019003906000526020600020016000909190919091505560066000815480929190610cab90611fa3565b919050555060008160ff161415610cd65781600e6000828254610cce9190611df2565b925050819055505b60018160ff161415610cfc5781600d6000828254610cf49190611df2565b925050819055505b600960009054906101000a900473ffffffffffffffffffffffffffffffffffffffff1673ffffffffffffffffffffffffffffffffffffffff166323b872dd3330856040518463ffffffff1660e01b8152600401610d5b93929190611b51565b602060405180830381600087803b158015610d7557600080fd5b505af1158015610d89573d6000803e3d6000fd5b505050506040513d601f19601f82011682018060405250810190610dad91906117bd565b50600960009054906101000a900473ffffffffffffffffffffffffffffffffffffffff1673ffffffffffffffffffffffffffffffffffffffff16635c19a95c306040518263ffffffff1660e01b8152600401610e099190611b0d565b600060405180830381600087803b158015610e2357600080fd5b505af1158015610e37573d6000803e3d6000fd5b50505050600a60009054906101000a900473ffffffffffffffffffffffffffffffffffffffff1673ffffffffffffffffffffffffffffffffffffffff166356781388600b54836040518363ffffffff1660e01b8152600401610e9a929190611d74565b602060405180830381600087803b158015610eb457600080fd5b505af1158015610ec8573d6000803e3d6000fd5b505050506040513d601f19601f82011682018060405250810190610eec9190611838565b505050565b600f6020528060005260406000206000915090508060000154908060010160009054906101000a900473ffffffffffffffffffffffffffffffffffffffff16908060020154908060030154908060040160009054906101000a900460ff16905085565b600c60009054906101000a900460ff16610fa3576040517f08c379a0000000000000000000000000000000000000000000000000000000008152600401610f9a90611ccb565b60405180910390fd5b3373ffffffffffffffffffffffffffffffffffffffff16600f600083815260200190815260200160002060010160009054906101000a900473ffffffffffffffffffffffffffffffffffffffff1673ffffffffffffffffffffffffffffffffffffffff1614611047576040517f08c379a000000000000000000000000000000000000000000000000000000000815260040161103e90611c4b565b60405180910390fd5b60011515600f600083815260200190815260200160002060040160009054906101000a900460ff161515146110b1576040517f08c379a00000000000000000000000000000000000000000000000000000000081526004016110a890611c8b565b60405180910390fd5b6000600f600083815260200190815260200160002060040160006101000a81548160ff0219169083151502179055506000600a60009054906101000a900473ffffffffffffffffffffffffffffffffffffffff1673ffffffffffffffffffffffffffffffffffffffff16633e4f49e6600b546040518263ffffffff1660e01b815260040161113f9190611d06565b60206040518083038186803b15801561115757600080fd5b505afa15801561116b573d6000803e3d6000fd5b505050506040513d601f19601f8201168201806040525081019061118f91906117e6565b60078111156111c7577f4e487b7100000000000000000000000000000000000000000000000000000000600052602160045260246000fd5b905060028114156112a057600960009054906101000a900473ffffffffffffffffffffffffffffffffffffffff1673ffffffffffffffffffffffffffffffffffffffff166323b872dd3033600f6000878152602001908152602001600020600201546040518463ffffffff1660e01b815260040161124793929190611b51565b602060405180830381600087803b15801561126157600080fd5b505af1158015611275573d6000803e3d6000fd5b505050506040513d601f19601f8201168201806040525081019061129991906117bd565b50506114a0565b600481141561139f5760006112e9600f600085815260200190815260200160002060020154600f6000868152602001908152602001600020600301546000600e54600d54611627565b9050600960009054906101000a900473ffffffffffffffffffffffffffffffffffffffff1673ffffffffffffffffffffffffffffffffffffffff166323b872dd3033846040518463ffffffff1660e01b815260040161134a93929190611b51565b602060405180830381600087803b15801561136457600080fd5b505af1158015611378573d6000803e3d6000fd5b505050506040513d601f19601f8201168201806040525081019061139c91906117bd565b50505b600781141561149e5760006113e8600f600085815260200190815260200160002060020154600f6000868152602001908152602001600020600301546001600d54600e54611627565b9050600960009054906101000a900473ffffffffffffffffffffffffffffffffffffffff1673ffffffffffffffffffffffffffffffffffffffff166323b872dd3033846040518463ffffffff1660e01b815260040161144993929190611b51565b602060405180830381600087803b15801561146357600080fd5b505af1158015611477573d6000803e3d6000fd5b505050506040513d601f19601f8201168201806040525081019061149b91906117bd565b50505b505b50565b600e5481565b600860009054906101000a900473ffffffffffffffffffffffffffffffffffffffff1681565b6114d7611693565b600f60008381526020019081526020016000206040518060a0016040529081600082015481526020016001820160009054906101000a900473ffffffffffffffffffffffffffffffffffffffff1673ffffffffffffffffffffffffffffffffffffffff1673ffffffffffffffffffffffffffffffffffffffff16815260200160028201548152602001600382015481526020016004820160009054906101000a900460ff1615151515815250509050919050565b61162382826040516024016115a1929190611bfb565b6040516020818303038152906040527f9710a9d0000000000000000000000000000000000000000000000000000000007bffffffffffffffffffffffffffffffffffffffffffffffffffffffff19166020820180517bffffffffffffffffffffffffffffffffffffffffffffffffffffffff838183161783525050505061166a565b5050565b60008360ff16851461163c5760009050611661565b8183876116499190611e48565b6116539190611e79565b8661165e9190611df2565b90505b95945050505050565b60008151905060006a636f6e736f6c652e6c6f679050602083016000808483855afa5050505050565b6040518060a0016040528060008152602001600073ffffffffffffffffffffffffffffffffffffffff16815260200160008152602001600081526020016000151581525090565b6000813590506116e9816121c3565b92915050565b6000815190506116fe816121da565b92915050565b600081519050611713816121f1565b92915050565b60008135905061172881612201565b92915050565b60008151905061173d81612201565b92915050565b60008135905061175281612218565b92915050565b60006020828403121561176a57600080fd5b6000611778848285016116da565b91505092915050565b6000806040838503121561179457600080fd5b60006117a2858286016116da565b92505060206117b385828601611719565b9150509250929050565b6000602082840312156117cf57600080fd5b60006117dd848285016116ef565b91505092915050565b6000602082840312156117f857600080fd5b600061180684828501611704565b91505092915050565b60006020828403121561182157600080fd5b600061182f84828501611719565b91505092915050565b60006020828403121561184a57600080fd5b60006118588482850161172e565b91505092915050565b6000806040838503121561187457600080fd5b600061188285828601611719565b925050602061189385828601611743565b9150509250929050565b60006118a98383611ae0565b60208301905092915050565b6118be81611ed3565b82525050565b6118cd81611ed3565b82525050565b60006118de82611dad565b6118e88185611dd0565b93506118f383611d9d565b8060005b8381101561192457815161190b888261189d565b975061191683611dc3565b9250506001810190506118f7565b5085935050505092915050565b61193a81611ee5565b82525050565b61194981611ee5565b82525050565b61195881611f28565b82525050565b61196781611f4c565b82525050565b600061197882611db8565b6119828185611de1565b9350611992818560208601611f70565b61199b8161204a565b840191505092915050565b60006119b3602583611de1565b91506119be8261205b565b604082019050919050565b60006119d6602983611de1565b91506119e1826120aa565b604082019050919050565b60006119f9601883611de1565b9150611a04826120f9565b602082019050919050565b6000611a1c601283611de1565b9150611a2782612122565b602082019050919050565b6000611a3f603783611de1565b9150611a4a8261214b565b604082019050919050565b6000611a62601f83611de1565b9150611a6d8261219a565b602082019050919050565b60a082016000820151611a8e6000850182611ae0565b506020820151611aa160208501826118b5565b506040820151611ab46040850182611ae0565b506060820151611ac76060850182611ae0565b506080820151611ada6080850182611931565b50505050565b611ae981611f11565b82525050565b611af881611f11565b82525050565b611b0781611f1b565b82525050565b6000602082019050611b2260008301846118c4565b92915050565b6000604082019050611b3d60008301856118c4565b611b4a60208301846118c4565b9392505050565b6000606082019050611b6660008301866118c4565b611b7360208301856118c4565b611b806040830184611aef565b949350505050565b60006020820190508181036000830152611ba281846118d3565b905092915050565b6000602082019050611bbf6000830184611940565b92915050565b6000602082019050611bda600083018461194f565b92915050565b6000602082019050611bf5600083018461195e565b92915050565b60006040820190508181036000830152611c15818561196d565b9050611c246020830184611aef565b9392505050565b60006020820190508181036000830152611c44816119a6565b9050919050565b60006020820190508181036000830152611c64816119c9565b9050919050565b60006020820190508181036000830152611c84816119ec565b9050919050565b60006020820190508181036000830152611ca481611a0f565b9050919050565b60006020820190508181036000830152611cc481611a32565b9050919050565b60006020820190508181036000830152611ce481611a55565b9050919050565b600060a082019050611d006000830184611a78565b92915050565b6000602082019050611d1b6000830184611aef565b92915050565b600060a082019050611d366000830188611aef565b611d4360208301876118c4565b611d506040830186611aef565b611d5d6060830185611aef565b611d6a6080830184611940565b9695505050505050565b6000604082019050611d896000830185611aef565b611d966020830184611afe565b9392505050565b6000819050602082019050919050565b600081519050919050565b600081519050919050565b6000602082019050919050565b600082825260208201905092915050565b600082825260208201905092915050565b6000611dfd82611f11565b9150611e0883611f11565b9250827fffffffffffffffffffffffffffffffffffffffffffffffffffffffffffffffff03821115611e3d57611e3c611fec565b5b828201905092915050565b6000611e5382611f11565b9150611e5e83611f11565b925082611e6e57611e6d61201b565b5b828204905092915050565b6000611e8482611f11565b9150611e8f83611f11565b9250817fffffffffffffffffffffffffffffffffffffffffffffffffffffffffffffffff0483118215151615611ec857611ec7611fec565b5b828202905092915050565b6000611ede82611ef1565b9050919050565b60008115159050919050565b600073ffffffffffffffffffffffffffffffffffffffff82169050919050565b6000819050919050565b600060ff82169050919050565b6000611f3382611f3a565b9050919050565b6000611f4582611ef1565b9050919050565b6000611f5782611f5e565b9050919050565b6000611f6982611ef1565b9050919050565b60005b83811015611f8e578082015181840152602081019050611f73565b83811115611f9d576000848401525b50505050565b6000611fae82611f11565b91507fffffffffffffffffffffffffffffffffffffffffffffffffffffffffffffffff821415611fe157611fe0611fec565b5b600182019050919050565b7f4e487b7100000000000000000000000000000000000000000000000000000000600052601160045260246000fd5b7f4e487b7100000000000000000000000000000000000000000000000000000000600052601260045260246000fd5b6000601f19601f8301169050919050565b7f70726f706f73616c206973206e6f206c6f6e67657220616363657074696e672060008201527f766f746573000000000000000000000000000000000000000000000000000000602082015250565b7f4f6e6c7920706f736974696f6e2063726561746f72206d6179206d6f6469667960008201527f20706f736974696f6e0000000000000000000000000000000000000000000000602082015250565b7f7265717569726520766f74696e672062652062696e6172790000000000000000600082015250565b7f506f736974696f6e20697320636c6f7365640000000000000000000000000000600082015250565b7f7374616b6520616d6f756e74206d757374206265206c657373207468616e206160008201527f7070726f766564207472616e7366657220616d6f756e74000000000000000000602082015250565b7f6d61726b657420686173206e6f74206265656e20736574746c65642079657400600082015250565b6121cc81611ed3565b81146121d757600080fd5b50565b6121e381611ee5565b81146121ee57600080fd5b50565b600881106121fe57600080fd5b50565b61220a81611f11565b811461221557600080fd5b50565b61222181611f1b565b811461222c57600080fd5b5056fea26469706673582212201ac5ea4b8b57b6cb69c67b0258c32a91a7b8d5ced83a4dd68c226cd27903186e64736f6c63430008040033",
  "linkReferences": {},
  "deployedLinkReferences": {}
}