{
  "_format": "hh-sol-artifact-1",
  "contractName": "Staking",
  "sourceName": "contracts/staking.sol",
  "abi": [
    {
      "inputs": [
        {
          "internalType": "address",
          "name": "_govTokenAddress",
          "type": "address"
        },
        {
          "internalType": "address",
          "name": "_govContractAddress",
          "type": "address"
        },
        {
          "internalType": "uint256",
          "name": "_proposalId",
          "type": "uint256"
        }
      ],
      "stateMutability": "payable",
      "type": "constructor"
    },
    {
      "inputs": [],
      "name": "_noPool",
      "outputs": [
        {
          "internalType": "contract VotePool",
          "name": "",
          "type": "address"
        }
      ],
      "stateMutability": "view",
      "type": "function"
    },
    {
      "inputs": [],
      "name": "_yesPool",
      "outputs": [
        {
          "internalType": "contract VotePool",
          "name": "",
          "type": "address"
        }
      ],
      "stateMutability": "view",
      "type": "function"
    },
    {
      "inputs": [
        {
          "internalType": "uint256",
          "name": "positionId",
          "type": "uint256"
        }
      ],
      "name": "closePosition",
      "outputs": [],
      "stateMutability": "nonpayable",
      "type": "function"
    },
    {
      "inputs": [],
      "name": "currentPositionId",
      "outputs": [
        {
          "internalType": "uint256",
          "name": "",
          "type": "uint256"
        }
      ],
      "stateMutability": "view",
      "type": "function"
    },
    {
      "inputs": [],
      "name": "getNoPool",
      "outputs": [
        {
          "internalType": "address",
          "name": "",
          "type": "address"
        }
      ],
      "stateMutability": "view",
      "type": "function"
    },
    {
      "inputs": [
        {
          "internalType": "uint256",
          "name": "positionId",
          "type": "uint256"
        }
      ],
      "name": "getPositionById",
      "outputs": [
        {
          "components": [
            {
              "internalType": "uint256",
              "name": "positionId",
              "type": "uint256"
            },
            {
              "internalType": "address",
              "name": "walletAddress",
              "type": "address"
            },
            {
              "internalType": "uint256",
              "name": "amount",
              "type": "uint256"
            },
            {
              "internalType": "uint256",
              "name": "support",
              "type": "uint256"
            },
            {
              "internalType": "bool",
              "name": "open",
              "type": "bool"
            }
          ],
          "internalType": "struct Staking.Position",
          "name": "",
          "type": "tuple"
        }
      ],
      "stateMutability": "view",
      "type": "function"
    },
    {
      "inputs": [
        {
          "internalType": "address",
          "name": "walletAddress",
          "type": "address"
        }
      ],
      "name": "getPositoinIdsForAddress",
      "outputs": [
        {
          "internalType": "uint256[]",
          "name": "",
          "type": "uint256[]"
        }
      ],
      "stateMutability": "view",
      "type": "function"
    },
    {
      "inputs": [],
      "name": "getYesPool",
      "outputs": [
        {
          "internalType": "address",
          "name": "",
          "type": "address"
        }
      ],
      "stateMutability": "view",
      "type": "function"
    },
    {
      "inputs": [],
      "name": "govContractAddress",
      "outputs": [
        {
          "internalType": "address",
          "name": "",
          "type": "address"
        }
      ],
      "stateMutability": "view",
      "type": "function"
    },
    {
      "inputs": [],
      "name": "govToken",
      "outputs": [
        {
          "internalType": "contract GovTokenMock",
          "name": "",
          "type": "address"
        }
      ],
      "stateMutability": "view",
      "type": "function"
    },
    {
      "inputs": [],
      "name": "govTokenAddress",
      "outputs": [
        {
          "internalType": "address",
          "name": "",
          "type": "address"
        }
      ],
      "stateMutability": "view",
      "type": "function"
    },
    {
      "inputs": [],
      "name": "governor",
      "outputs": [
        {
          "internalType": "contract GovernorMock",
          "name": "",
          "type": "address"
        }
      ],
      "stateMutability": "view",
      "type": "function"
    },
    {
      "inputs": [],
      "name": "marketSettled",
      "outputs": [
        {
          "internalType": "bool",
          "name": "",
          "type": "bool"
        }
      ],
      "stateMutability": "view",
      "type": "function"
    },
    {
      "inputs": [],
      "name": "owner",
      "outputs": [
        {
          "internalType": "address",
          "name": "",
          "type": "address"
        }
      ],
      "stateMutability": "view",
      "type": "function"
    },
    {
      "inputs": [
        {
          "internalType": "address",
          "name": "",
          "type": "address"
        },
        {
          "internalType": "uint256",
          "name": "",
          "type": "uint256"
        }
      ],
      "name": "positionIdsByAddress",
      "outputs": [
        {
          "internalType": "uint256",
          "name": "",
          "type": "uint256"
        }
      ],
      "stateMutability": "view",
      "type": "function"
    },
    {
      "inputs": [
        {
          "internalType": "uint256",
          "name": "",
          "type": "uint256"
        }
      ],
      "name": "positions",
      "outputs": [
        {
          "internalType": "uint256",
          "name": "positionId",
          "type": "uint256"
        },
        {
          "internalType": "address",
          "name": "walletAddress",
          "type": "address"
        },
        {
          "internalType": "uint256",
          "name": "amount",
          "type": "uint256"
        },
        {
          "internalType": "uint256",
          "name": "support",
          "type": "uint256"
        },
        {
          "internalType": "bool",
          "name": "open",
          "type": "bool"
        }
      ],
      "stateMutability": "view",
      "type": "function"
    },
    {
      "inputs": [],
      "name": "proposalId",
      "outputs": [
        {
          "internalType": "uint256",
          "name": "",
          "type": "uint256"
        }
      ],
      "stateMutability": "view",
      "type": "function"
    },
    {
      "inputs": [],
      "name": "settleMarket",
      "outputs": [],
      "stateMutability": "nonpayable",
      "type": "function"
    },
    {
      "inputs": [
        {
          "internalType": "uint256",
          "name": "amount",
          "type": "uint256"
        },
        {
          "internalType": "uint8",
          "name": "support",
          "type": "uint8"
        }
      ],
      "name": "stakeVote",
      "outputs": [],
      "stateMutability": "payable",
      "type": "function"
    },
    {
      "inputs": [],
      "name": "totalNo",
      "outputs": [
        {
          "internalType": "uint256",
          "name": "",
          "type": "uint256"
        }
      ],
      "stateMutability": "view",
      "type": "function"
    },
    {
      "inputs": [],
      "name": "totalYes",
      "outputs": [
        {
          "internalType": "uint256",
          "name": "",
          "type": "uint256"
        }
      ],
      "stateMutability": "view",
      "type": "function"
    }
  ],
  "bytecode": "0x60806040526040516200371e3803806200371e833981810160405281019062000029919062000378565b82600760006101000a81548173ffffffffffffffffffffffffffffffffffffffff021916908373ffffffffffffffffffffffffffffffffffffffff16021790555081600860006101000a81548173ffffffffffffffffffffffffffffffffffffffff021916908373ffffffffffffffffffffffffffffffffffffffff16021790555082600b60006101000a81548173ffffffffffffffffffffffffffffffffffffffff021916908373ffffffffffffffffffffffffffffffffffffffff16021790555081600c60006101000a81548173ffffffffffffffffffffffffffffffffffffffff021916908373ffffffffffffffffffffffffffffffffffffffff16021790555080600d81905550336000806101000a81548173ffffffffffffffffffffffffffffffffffffffff021916908373ffffffffffffffffffffffffffffffffffffffff16021790555060006006819055506000600e60006101000a81548160ff02191690831515021790555060006010819055506000600f81905550600c60009054906101000a900473ffffffffffffffffffffffffffffffffffffffff16600b60009054906101000a900473ffffffffffffffffffffffffffffffffffffffff166000600d5460405162000200906200033c565b6200020f949392919062000412565b604051809103906000f0801580156200022c573d6000803e3d6000fd5b50600a60006101000a81548173ffffffffffffffffffffffffffffffffffffffff021916908373ffffffffffffffffffffffffffffffffffffffff160217905550600c60009054906101000a900473ffffffffffffffffffffffffffffffffffffffff16600b60009054906101000a900473ffffffffffffffffffffffffffffffffffffffff166001600d54604051620002c6906200033c565b620002d594939291906200045f565b604051809103906000f080158015620002f2573d6000803e3d6000fd5b50600960006101000a81548173ffffffffffffffffffffffffffffffffffffffff021916908373ffffffffffffffffffffffffffffffffffffffff16021790555050505062000553565b61099a8062002d8483390190565b6000815190506200035b816200051f565b92915050565b600081519050620003728162000539565b92915050565b6000806000606084860312156200038e57600080fd5b60006200039e868287016200034a565b9350506020620003b1868287016200034a565b9250506040620003c48682870162000361565b9150509250925092565b620003d981620004ac565b82525050565b620003ea81620004f7565b82525050565b620003fb816200050b565b82525050565b6200040c81620004e0565b82525050565b6000608082019050620004296000830187620003ce565b620004386020830186620003ce565b620004476040830185620003df565b62000456606083018462000401565b95945050505050565b6000608082019050620004766000830187620003ce565b620004856020830186620003ce565b620004946040830185620003f0565b620004a3606083018462000401565b95945050505050565b6000620004b982620004c0565b9050919050565b600073ffffffffffffffffffffffffffffffffffffffff82169050919050565b6000819050919050565b600060ff82169050919050565b60006200050482620004ea565b9050919050565b60006200051882620004ea565b9050919050565b6200052a81620004ac565b81146200053657600080fd5b50565b6200054481620004e0565b81146200055057600080fd5b50565b61282180620005636000396000f3fe60806040526004361061012a5760003560e01c8063842dc732116100ab5780639629fb1c1161006f5780639629fb1c146103c457806399fbab88146103e0578063a126d60114610421578063af0088831461044a578063b3e7485b14610475578063b838ec86146104a05761012a565b8063842dc7321461030157806385535d3f1461032c57806385970c661461035757806388ba8dd61461036e5780638da5cb5b146103995761012a565b80632dfca445116100f25780632dfca4451461020657806345eae373146102315780634a3b00a61461026e5780636e77609e1461029957806383180816146102c45761012a565b806305268cff1461012f5780630c340a241461015a5780631131c8cd1461018557806320baa62e146101b0578063246cd7b9146101db575b600080fd5b34801561013b57600080fd5b506101446104dd565b6040516101519190612149565b60405180910390f35b34801561016657600080fd5b5061016f610503565b60405161017c9190612164565b60405180910390f35b34801561019157600080fd5b5061019a610529565b6040516101a791906122c7565b60405180910390f35b3480156101bc57600080fd5b506101c561052f565b6040516101d2919061217f565b60405180910390f35b3480156101e757600080fd5b506101f0610555565b6040516101fd9190612068565b60405180910390f35b34801561021257600080fd5b5061021b61057f565b60405161022891906122c7565b60405180910390f35b34801561023d57600080fd5b5061025860048036038101906102539190611cdc565b610585565b60405161026591906122c7565b60405180910390f35b34801561027a57600080fd5b506102836105b6565b6040516102909190612068565b60405180910390f35b3480156102a557600080fd5b506102ae6105dc565b6040516102bb919061212e565b60405180910390f35b3480156102d057600080fd5b506102eb60048036038101906102e69190611cb3565b6105ef565b6040516102f8919061210c565b60405180910390f35b34801561030d57600080fd5b50610316610686565b604051610323919061217f565b60405180910390f35b34801561033857600080fd5b506103416106ac565b60405161034e9190612068565b60405180910390f35b34801561036357600080fd5b5061036c6106d6565b005b34801561037a57600080fd5b5061038361090e565b60405161039091906122c7565b60405180910390f35b3480156103a557600080fd5b506103ae610914565b6040516103bb9190612068565b60405180910390f35b6103de60048036038101906103d99190611dbc565b610938565b005b3480156103ec57600080fd5b5061040760048036038101906104029190611d6a565b61101f565b6040516104189594939291906122e2565b60405180910390f35b34801561042d57600080fd5b5061044860048036038101906104439190611d6a565b611082565b005b34801561045657600080fd5b5061045f6118d7565b60405161046c91906122c7565b60405180910390f35b34801561048157600080fd5b5061048a6118dd565b6040516104979190612068565b60405180910390f35b3480156104ac57600080fd5b506104c760048036038101906104c29190611d6a565b611903565b6040516104d491906122ac565b60405180910390f35b600b60009054906101000a900473ffffffffffffffffffffffffffffffffffffffff1681565b600c60009054906101000a900473ffffffffffffffffffffffffffffffffffffffff1681565b60065481565b600960009054906101000a900473ffffffffffffffffffffffffffffffffffffffff1681565b6000600960009054906101000a900473ffffffffffffffffffffffffffffffffffffffff16905090565b600d5481565b601260205281600052604060002081815481106105a157600080fd5b90600052602060002001600091509150505481565b600760009054906101000a900473ffffffffffffffffffffffffffffffffffffffff1681565b600e60009054906101000a900460ff1681565b6060601260008373ffffffffffffffffffffffffffffffffffffffff1673ffffffffffffffffffffffffffffffffffffffff16815260200190815260200160002080548060200260200160405190810160405280929190818152602001828054801561067a57602002820191906000526020600020905b815481526020019060010190808311610666575b50505050509050919050565b600a60009054906101000a900473ffffffffffffffffffffffffffffffffffffffff1681565b6000600a60009054906101000a900473ffffffffffffffffffffffffffffffffffffffff16905090565b60001515600e60009054906101000a900460ff161515146106f657600080fd5b6000600c60009054906101000a900473ffffffffffffffffffffffffffffffffffffffff1673ffffffffffffffffffffffffffffffffffffffff16633e4f49e6600d546040518263ffffffff1660e01b815260040161075591906122c7565b60206040518083038186803b15801561076d57600080fd5b505afa158015610781573d6000803e3d6000fd5b505050506040513d601f19601f820116820180604052508101906107a59190611d41565b60078111156107dd577f4e487b7100000000000000000000000000000000000000000000000000000000600052602160045260246000fd5b9050600181146107ec57600080fd5b600960009054906101000a900473ffffffffffffffffffffffffffffffffffffffff1673ffffffffffffffffffffffffffffffffffffffff1663632a9a526040518163ffffffff1660e01b8152600401600060405180830381600087803b15801561085657600080fd5b505af115801561086a573d6000803e3d6000fd5b50505050600a60009054906101000a900473ffffffffffffffffffffffffffffffffffffffff1673ffffffffffffffffffffffffffffffffffffffff1663632a9a526040518163ffffffff1660e01b8152600401600060405180830381600087803b1580156108d857600080fd5b505af11580156108ec573d6000803e3d6000fd5b505050506001600e60006101000a81548160ff02191690831515021790555050565b600f5481565b60008054906101000a900473ffffffffffffffffffffffffffffffffffffffff1681565b60018160ff16148061094d575060008160ff16145b61098c576040517f08c379a00000000000000000000000000000000000000000000000000000000081526004016109839061222c565b60405180910390fd5b81600b60009054906101000a900473ffffffffffffffffffffffffffffffffffffffff1673ffffffffffffffffffffffffffffffffffffffff1663dd62ed3e33306040518363ffffffff1660e01b81526004016109ea929190612083565b60206040518083038186803b158015610a0257600080fd5b505afa158015610a16573d6000803e3d6000fd5b505050506040513d601f19601f82011682018060405250810190610a3a9190611d93565b1015610a7b576040517f08c379a0000000000000000000000000000000000000000000000000000000008152600401610a729061226c565b60405180910390fd5b610b9e6040518060400160405280601281526020017f70726f706f73616c2073746174653a2025730000000000000000000000000000815250600c60009054906101000a900473ffffffffffffffffffffffffffffffffffffffff1673ffffffffffffffffffffffffffffffffffffffff16633e4f49e6600d546040518263ffffffff1660e01b8152600401610b1191906122c7565b60206040518083038186803b158015610b2957600080fd5b505afa158015610b3d573d6000803e3d6000fd5b505050506040513d601f19601f82011682018060405250810190610b619190611d41565b6007811115610b99577f4e487b7100000000000000000000000000000000000000000000000000000000600052602160045260246000fd5b6119bf565b6001600c60009054906101000a900473ffffffffffffffffffffffffffffffffffffffff1673ffffffffffffffffffffffffffffffffffffffff16633e4f49e6600d546040518263ffffffff1660e01b8152600401610bfd91906122c7565b60206040518083038186803b158015610c1557600080fd5b505afa158015610c29573d6000803e3d6000fd5b505050506040513d601f19601f82011682018060405250810190610c4d9190611d41565b6007811115610c85577f4e487b7100000000000000000000000000000000000000000000000000000000600052602160045260246000fd5b14610cc5576040517f08c379a0000000000000000000000000000000000000000000000000000000008152600401610cbc906121ec565b60405180910390fd5b6040518060a0016040528060065481526020013373ffffffffffffffffffffffffffffffffffffffff1681526020018381526020018260ff168152602001600115158152506011600060065481526020019081526020016000206000820151816000015560208201518160010160006101000a81548173ffffffffffffffffffffffffffffffffffffffff021916908373ffffffffffffffffffffffffffffffffffffffff160217905550604082015181600201556060820151816003015560808201518160040160006101000a81548160ff021916908315150217905550905050601260003373ffffffffffffffffffffffffffffffffffffffff1673ffffffffffffffffffffffffffffffffffffffff168152602001908152602001600020600654908060018154018082558091505060019003906000526020600020016000909190919091505560066000815480929190610e229061255f565b919050555060008160ff161415610f21578160106000828254610e45919061238a565b92505081905550600b60009054906101000a900473ffffffffffffffffffffffffffffffffffffffff1673ffffffffffffffffffffffffffffffffffffffff166323b872dd33600a60009054906101000a900473ffffffffffffffffffffffffffffffffffffffff16856040518463ffffffff1660e01b8152600401610ecd939291906120ac565b602060405180830381600087803b158015610ee757600080fd5b505af1158015610efb573d6000803e3d6000fd5b505050506040513d601f19601f82011682018060405250810190610f1f9190611d18565b505b60018160ff16141561101b5781600f6000828254610f3f919061238a565b92505081905550600b60009054906101000a900473ffffffffffffffffffffffffffffffffffffffff1673ffffffffffffffffffffffffffffffffffffffff166323b872dd33600960009054906101000a900473ffffffffffffffffffffffffffffffffffffffff16856040518463ffffffff1660e01b8152600401610fc7939291906120ac565b602060405180830381600087803b158015610fe157600080fd5b505af1158015610ff5573d6000803e3d6000fd5b505050506040513d601f19601f820116820180604052508101906110199190611d18565b505b5050565b60116020528060005260406000206000915090508060000154908060010160009054906101000a900473ffffffffffffffffffffffffffffffffffffffff16908060020154908060030154908060040160009054906101000a900460ff16905085565b600e60009054906101000a900460ff166110d1576040517f08c379a00000000000000000000000000000000000000000000000000000000081526004016110c89061228c565b60405180910390fd5b3373ffffffffffffffffffffffffffffffffffffffff166011600083815260200190815260200160002060010160009054906101000a900473ffffffffffffffffffffffffffffffffffffffff1673ffffffffffffffffffffffffffffffffffffffff1614611175576040517f08c379a000000000000000000000000000000000000000000000000000000000815260040161116c9061220c565b60405180910390fd5b600115156011600083815260200190815260200160002060040160009054906101000a900460ff161515146111df576040517f08c379a00000000000000000000000000000000000000000000000000000000081526004016111d69061224c565b60405180910390fd5b60006011600083815260200190815260200160002060040160006101000a81548160ff0219169083151502179055506000600c60009054906101000a900473ffffffffffffffffffffffffffffffffffffffff1673ffffffffffffffffffffffffffffffffffffffff16633e4f49e6600d546040518263ffffffff1660e01b815260040161126d91906122c7565b60206040518083038186803b15801561128557600080fd5b505afa158015611299573d6000803e3d6000fd5b505050506040513d601f19601f820116820180604052508101906112bd9190611d41565b60078111156112f5577f4e487b7100000000000000000000000000000000000000000000000000000000600052602160045260246000fd5b905060028114156114ff5760006011600084815260200190815260200160002060030154141561140f57600b60009054906101000a900473ffffffffffffffffffffffffffffffffffffffff1673ffffffffffffffffffffffffffffffffffffffff166323b872dd600a60009054906101000a900473ffffffffffffffffffffffffffffffffffffffff163360116000878152602001908152602001600020600201546040518463ffffffff1660e01b81526004016113b6939291906120ac565b602060405180830381600087803b1580156113d057600080fd5b505af11580156113e4573d6000803e3d6000fd5b505050506040513d601f19601f820116820180604052508101906114089190611d18565b50506118d4565b600b60009054906101000a900473ffffffffffffffffffffffffffffffffffffffff1673ffffffffffffffffffffffffffffffffffffffff166323b872dd600960009054906101000a900473ffffffffffffffffffffffffffffffffffffffff163360116000878152602001908152602001600020600201546040518463ffffffff1660e01b81526004016114a6939291906120ac565b602060405180830381600087803b1580156114c057600080fd5b505af11580156114d4573d6000803e3d6000fd5b505050506040513d601f19601f820116820180604052508101906114f89190611d18565b50506118d4565b60038114156116c7576115466040518060400160405280600781526020017f6e6f2077696e7300000000000000000000000000000000000000000000000000815250611a5b565b6000611586601160008581526020019081526020016000206002015460116000868152602001908152602001600020600301546000601054600f54611af4565b905061159181611b2c565b600960009054906101000a900473ffffffffffffffffffffffffffffffffffffffff1673ffffffffffffffffffffffffffffffffffffffff1663a9059cbb33836040518363ffffffff1660e01b81526004016115ee9291906120e3565b600060405180830381600087803b15801561160857600080fd5b505af115801561161c573d6000803e3d6000fd5b50505050600a60009054906101000a900473ffffffffffffffffffffffffffffffffffffffff1673ffffffffffffffffffffffffffffffffffffffff1663a9059cbb3360116000878152602001908152602001600020600201546040518363ffffffff1660e01b81526004016116939291906120e3565b600060405180830381600087803b1580156116ad57600080fd5b505af11580156116c1573d6000803e3d6000fd5b50505050505b60078114156118d2576000611710601160008581526020019081526020016000206002015460116000868152602001908152602001600020600301546001600f54601054611af4565b9050600b60009054906101000a900473ffffffffffffffffffffffffffffffffffffffff1673ffffffffffffffffffffffffffffffffffffffff166323b872dd600a60009054906101000a900473ffffffffffffffffffffffffffffffffffffffff1633846040518463ffffffff1660e01b8152600401611793939291906120ac565b602060405180830381600087803b1580156117ad57600080fd5b505af11580156117c1573d6000803e3d6000fd5b505050506040513d601f19601f820116820180604052508101906117e59190611d18565b50600b60009054906101000a900473ffffffffffffffffffffffffffffffffffffffff1673ffffffffffffffffffffffffffffffffffffffff166323b872dd600960009054906101000a900473ffffffffffffffffffffffffffffffffffffffff163360116000888152602001908152602001600020600201546040518463ffffffff1660e01b815260040161187d939291906120ac565b602060405180830381600087803b15801561189757600080fd5b505af11580156118ab573d6000803e3d6000fd5b505050506040513d601f19601f820116820180604052508101906118cf9190611d18565b50505b505b50565b60105481565b600860009054906101000a900473ffffffffffffffffffffffffffffffffffffffff1681565b61190b611bee565b601160008381526020019081526020016000206040518060a0016040529081600082015481526020016001820160009054906101000a900473ffffffffffffffffffffffffffffffffffffffff1673ffffffffffffffffffffffffffffffffffffffff1673ffffffffffffffffffffffffffffffffffffffff16815260200160028201548152602001600382015481526020016004820160009054906101000a900460ff1615151515815250509050919050565b611a5782826040516024016119d59291906121bc565b6040516020818303038152906040527f9710a9d0000000000000000000000000000000000000000000000000000000007bffffffffffffffffffffffffffffffffffffffffffffffffffffffff19166020820180517bffffffffffffffffffffffffffffffffffffffffffffffffffffffff8381831617835250505050611bc5565b5050565b611af181604051602401611a6f919061219a565b6040516020818303038152906040527f41304fac000000000000000000000000000000000000000000000000000000007bffffffffffffffffffffffffffffffffffffffffffffffffffffffff19166020820180517bffffffffffffffffffffffffffffffffffffffffffffffffffffffff8381831617835250505050611bc5565b50565b60008360ff168514611b095760009050611b23565b818387611b1691906123e0565b611b209190612411565b90505b95945050505050565b611bc281604051602401611b4091906122c7565b6040516020818303038152906040527ff5b1bba9000000000000000000000000000000000000000000000000000000007bffffffffffffffffffffffffffffffffffffffffffffffffffffffff19166020820180517bffffffffffffffffffffffffffffffffffffffffffffffffffffffff8381831617835250505050611bc5565b50565b60008151905060006a636f6e736f6c652e6c6f679050602083016000808483855afa5050505050565b6040518060a0016040528060008152602001600073ffffffffffffffffffffffffffffffffffffffff16815260200160008152602001600081526020016000151581525090565b600081359050611c448161277f565b92915050565b600081519050611c5981612796565b92915050565b600081519050611c6e816127ad565b92915050565b600081359050611c83816127bd565b92915050565b600081519050611c98816127bd565b92915050565b600081359050611cad816127d4565b92915050565b600060208284031215611cc557600080fd5b6000611cd384828501611c35565b91505092915050565b60008060408385031215611cef57600080fd5b6000611cfd85828601611c35565b9250506020611d0e85828601611c74565b9150509250929050565b600060208284031215611d2a57600080fd5b6000611d3884828501611c4a565b91505092915050565b600060208284031215611d5357600080fd5b6000611d6184828501611c5f565b91505092915050565b600060208284031215611d7c57600080fd5b6000611d8a84828501611c74565b91505092915050565b600060208284031215611da557600080fd5b6000611db384828501611c89565b91505092915050565b60008060408385031215611dcf57600080fd5b6000611ddd85828601611c74565b9250506020611dee85828601611c9e565b9150509250929050565b6000611e04838361204a565b60208301905092915050565b611e198161246b565b82525050565b611e288161246b565b82525050565b6000611e3982612345565b611e438185612368565b9350611e4e83612335565b8060005b83811015611e7f578151611e668882611df8565b9750611e718361235b565b925050600181019050611e52565b5085935050505092915050565b611e958161247d565b82525050565b611ea48161247d565b82525050565b611eb3816124c0565b82525050565b611ec2816124e4565b82525050565b611ed181612508565b82525050565b6000611ee282612350565b611eec8185612379565b9350611efc81856020860161252c565b611f0581612606565b840191505092915050565b6000611f1d602583612379565b9150611f2882612617565b604082019050919050565b6000611f40602983612379565b9150611f4b82612666565b604082019050919050565b6000611f63601883612379565b9150611f6e826126b5565b602082019050919050565b6000611f86601283612379565b9150611f91826126de565b602082019050919050565b6000611fa9603783612379565b9150611fb482612707565b604082019050919050565b6000611fcc601f83612379565b9150611fd782612756565b602082019050919050565b60a082016000820151611ff8600085018261204a565b50602082015161200b6020850182611e10565b50604082015161201e604085018261204a565b506060820151612031606085018261204a565b5060808201516120446080850182611e8c565b50505050565b612053816124a9565b82525050565b612062816124a9565b82525050565b600060208201905061207d6000830184611e1f565b92915050565b60006040820190506120986000830185611e1f565b6120a56020830184611e1f565b9392505050565b60006060820190506120c16000830186611e1f565b6120ce6020830185611e1f565b6120db6040830184612059565b949350505050565b60006040820190506120f86000830185611e1f565b6121056020830184612059565b9392505050565b600060208201905081810360008301526121268184611e2e565b905092915050565b60006020820190506121436000830184611e9b565b92915050565b600060208201905061215e6000830184611eaa565b92915050565b60006020820190506121796000830184611eb9565b92915050565b60006020820190506121946000830184611ec8565b92915050565b600060208201905081810360008301526121b48184611ed7565b905092915050565b600060408201905081810360008301526121d68185611ed7565b90506121e56020830184612059565b9392505050565b6000602082019050818103600083015261220581611f10565b9050919050565b6000602082019050818103600083015261222581611f33565b9050919050565b6000602082019050818103600083015261224581611f56565b9050919050565b6000602082019050818103600083015261226581611f79565b9050919050565b6000602082019050818103600083015261228581611f9c565b9050919050565b600060208201905081810360008301526122a581611fbf565b9050919050565b600060a0820190506122c16000830184611fe2565b92915050565b60006020820190506122dc6000830184612059565b92915050565b600060a0820190506122f76000830188612059565b6123046020830187611e1f565b6123116040830186612059565b61231e6060830185612059565b61232b6080830184611e9b565b9695505050505050565b6000819050602082019050919050565b600081519050919050565b600081519050919050565b6000602082019050919050565b600082825260208201905092915050565b600082825260208201905092915050565b6000612395826124a9565b91506123a0836124a9565b9250827fffffffffffffffffffffffffffffffffffffffffffffffffffffffffffffffff038211156123d5576123d46125a8565b5b828201905092915050565b60006123eb826124a9565b91506123f6836124a9565b925082612406576124056125d7565b5b828204905092915050565b600061241c826124a9565b9150612427836124a9565b9250817fffffffffffffffffffffffffffffffffffffffffffffffffffffffffffffffff04831182151516156124605761245f6125a8565b5b828202905092915050565b600061247682612489565b9050919050565b60008115159050919050565b600073ffffffffffffffffffffffffffffffffffffffff82169050919050565b6000819050919050565b600060ff82169050919050565b60006124cb826124d2565b9050919050565b60006124dd82612489565b9050919050565b60006124ef826124f6565b9050919050565b600061250182612489565b9050919050565b60006125138261251a565b9050919050565b600061252582612489565b9050919050565b60005b8381101561254a57808201518184015260208101905061252f565b83811115612559576000848401525b50505050565b600061256a826124a9565b91507fffffffffffffffffffffffffffffffffffffffffffffffffffffffffffffffff82141561259d5761259c6125a8565b5b600182019050919050565b7f4e487b7100000000000000000000000000000000000000000000000000000000600052601160045260246000fd5b7f4e487b7100000000000000000000000000000000000000000000000000000000600052601260045260246000fd5b6000601f19601f8301169050919050565b7f70726f706f73616c206973206e6f206c6f6e67657220616363657074696e672060008201527f766f746573000000000000000000000000000000000000000000000000000000602082015250565b7f4f6e6c7920706f736974696f6e2063726561746f72206d6179206d6f6469667960008201527f20706f736974696f6e0000000000000000000000000000000000000000000000602082015250565b7f7265717569726520766f74696e672062652062696e6172790000000000000000600082015250565b7f506f736974696f6e20697320636c6f7365640000000000000000000000000000600082015250565b7f7374616b6520616d6f756e74206d757374206265206c657373207468616e206160008201527f7070726f766564207472616e7366657220616d6f756e74000000000000000000602082015250565b7f6d61726b657420686173206e6f74206265656e20736574746c65642079657400600082015250565b6127888161246b565b811461279357600080fd5b50565b61279f8161247d565b81146127aa57600080fd5b50565b600881106127ba57600080fd5b50565b6127c6816124a9565b81146127d157600080fd5b50565b6127dd816124b3565b81146127e857600080fd5b5056fea26469706673582212206806a2556b9700bef453682ecaa3b396cb991f92ab0b89c852688b52990ce0ae64736f6c63430008040033608060405234801561001057600080fd5b5060405161099a38038061099a8339818101604052810190610032919061015e565b336000806101000a81548173ffffffffffffffffffffffffffffffffffffffff021916908373ffffffffffffffffffffffffffffffffffffffff16021790555081600260146101000a81548160ff021916908360ff1602179055508060038190555083600260006101000a81548173ffffffffffffffffffffffffffffffffffffffff021916908373ffffffffffffffffffffffffffffffffffffffff16021790555082600160006101000a81548173ffffffffffffffffffffffffffffffffffffffff021916908373ffffffffffffffffffffffffffffffffffffffff1602179055505050505061024f565b60008151905061012e8161020a565b92915050565b60008151905061014381610221565b92915050565b60008151905061015881610238565b92915050565b6000806000806080858703121561017457600080fd5b60006101828782880161011f565b94505060206101938782880161011f565b93505060406101a487828801610149565b92505060606101b587828801610134565b91505092959194509250565b60006101cc826101d3565b9050919050565b600073ffffffffffffffffffffffffffffffffffffffff82169050919050565b6000819050919050565b600060ff82169050919050565b610213816101c1565b811461021e57600080fd5b50565b61022a816101f3565b811461023557600080fd5b50565b610241816101fd565b811461024c57600080fd5b50565b61073c8061025e6000396000f3fe608060405234801561001057600080fd5b50600436106100625760003560e01c80632453abda14610067578063632a9a5214610085578063644b902c1461008f57806364f402c9146100ad578063a9059cbb146100cb578063b91be52d146100e7575b600080fd5b61006f610105565b60405161007c91906105c5565b60405180910390f35b61008d61010b565b005b6100976102b3565b6040516100a49190610609565b60405180910390f35b6100b56102c6565b6040516100c291906105aa565b60405180910390f35b6100e560048036038101906100e09190610472565b6102ec565b005b6100ef6103f8565b6040516100fc919061058f565b60405180910390f35b60035481565b60008054906101000a900473ffffffffffffffffffffffffffffffffffffffff1673ffffffffffffffffffffffffffffffffffffffff163373ffffffffffffffffffffffffffffffffffffffff161461016357600080fd5b600160009054906101000a900473ffffffffffffffffffffffffffffffffffffffff1673ffffffffffffffffffffffffffffffffffffffff16635c19a95c306040518263ffffffff1660e01b81526004016101be919061054b565b600060405180830381600087803b1580156101d857600080fd5b505af11580156101ec573d6000803e3d6000fd5b50505050600260009054906101000a900473ffffffffffffffffffffffffffffffffffffffff1673ffffffffffffffffffffffffffffffffffffffff166356781388600354600260149054906101000a900460ff166040518363ffffffff1660e01b815260040161025e9291906105e0565b602060405180830381600087803b15801561027857600080fd5b505af115801561028c573d6000803e3d6000fd5b505050506040513d601f19601f820116820180604052508101906102b091906104d7565b50565b600260149054906101000a900460ff1681565b600260009054906101000a900473ffffffffffffffffffffffffffffffffffffffff1681565b60008054906101000a900473ffffffffffffffffffffffffffffffffffffffff1673ffffffffffffffffffffffffffffffffffffffff163373ffffffffffffffffffffffffffffffffffffffff161461034457600080fd5b600160009054906101000a900473ffffffffffffffffffffffffffffffffffffffff1673ffffffffffffffffffffffffffffffffffffffff1663a9059cbb83836040518363ffffffff1660e01b81526004016103a1929190610566565b602060405180830381600087803b1580156103bb57600080fd5b505af11580156103cf573d6000803e3d6000fd5b505050506040513d601f19601f820116820180604052508101906103f391906104ae565b505050565b600160009054906101000a900473ffffffffffffffffffffffffffffffffffffffff1681565b60008135905061042d816106c1565b92915050565b600081519050610442816106d8565b92915050565b600081359050610457816106ef565b92915050565b60008151905061046c816106ef565b92915050565b6000806040838503121561048557600080fd5b60006104938582860161041e565b92505060206104a485828601610448565b9150509250929050565b6000602082840312156104c057600080fd5b60006104ce84828501610433565b91505092915050565b6000602082840312156104e957600080fd5b60006104f78482850161045d565b91505092915050565b61050981610624565b82525050565b61051881610679565b82525050565b6105278161069d565b82525050565b61053681610662565b82525050565b6105458161066c565b82525050565b60006020820190506105606000830184610500565b92915050565b600060408201905061057b6000830185610500565b610588602083018461052d565b9392505050565b60006020820190506105a4600083018461050f565b92915050565b60006020820190506105bf600083018461051e565b92915050565b60006020820190506105da600083018461052d565b92915050565b60006040820190506105f5600083018561052d565b610602602083018461053c565b9392505050565b600060208201905061061e600083018461053c565b92915050565b600061062f82610642565b9050919050565b60008115159050919050565b600073ffffffffffffffffffffffffffffffffffffffff82169050919050565b6000819050919050565b600060ff82169050919050565b60006106848261068b565b9050919050565b600061069682610642565b9050919050565b60006106a8826106af565b9050919050565b60006106ba82610642565b9050919050565b6106ca81610624565b81146106d557600080fd5b50565b6106e181610636565b81146106ec57600080fd5b50565b6106f881610662565b811461070357600080fd5b5056fea26469706673582212206cf7b561c040d41836a34cc6e2683182692e9fbb19770419a538cb7c2a972ba364736f6c63430008040033",
  "linkReferences": {},
  "deployedLinkReferences": {}
}